:020000040800F2
:100000009005002001010008E1300008892800085F
:10001000DD3000082D080008F53000080000000061
:10002000000000000000000000000000E9300008AF
:100030003108000800000000E5300008ED3000083D
:100040001B0100081B0100081B0100081B01000820
:100050001B0100081B0100081B0100081B01000810
:100060001B0100081B0100081B0100081B01000800
:100070001B0100081B0100081B0100081B010008F0
:100080001B0100081B0100081B0100081B010008E0
:100090001B0100081B0100081B0100081B010008D0
:1000A0001B0100081B0100081B0100081B010008C0
:1000B0001B0100081B0100081B0100081B010008B0
:1000C0001B0100081B0100081B0100081B010008A0
:1000D0001B0100081B0100081B0100081B01000890
:1000E0001B0100081B0100081B010008DFF80CD0F1
:1000F00000F0FCFA00480047193100089005002084
:100100000648804706480047FEE7FEE7FEE7FEE7B1
:10011000FEE7FEE7FEE7FEE7FEE7FEE7F130000858
:10012000ED000008F0B480EA0102D40F4200B2EB07
:10013000410F02D20246084611464A0042D0C30D82
:10014000DDB2C1F3C752AD1A202D35DAC1F3160165
:1001500041F4000204B15242C5F1200602FA06F150
:100160002A411044B3EBD05F23D0C4B1012DA0EBE2
:10017000C35009DCF0BC4FF0004202EAC352DBB2CC
:1001800000F5000000F0CCB8400000F1807000EBFA
:10019000C350A0F1807040EAD170490009E04908DD
:1001A00041EAC071A0EBC35000F50000400800EB2D
:1001B000C350F0BC00F0ABB86142012202EB410138
:1001C000001BF6E7F0BC704781F00041AAE780F021
:1001D0000040A7E730B480EA010202F0004530F0A9
:1001E000004221F0004013D090B1C30DD40DC2F3F2
:1001F0001601C0F31600E41A41F4000140F40002B5
:100200007D34914201D3641C00E04900002C02DAE5
:1002100030BC002070474FF400000023914201D30E
:10022000891A034340084FEA4101F7D151B1914285
:1002300002D14FF0004105E002D24FF0010101E090
:100240006FF0010103EBC450284430BC00F05FB8EC
:1002500096230022114600F063B800F0004230F00F
:1002600000400AD0C10D01F56071C0F3160042EAEA
:100270000151C208400711437047002001467047F2
:1002800030B50B46014600202022012409E021FA66
:1002900002F59D4205D303FA02F5491B04FA02F563
:1002A0002844151EA2F10102F1DC30BD2DE9F05FFA
:1002B0000546002092469B468846064681464024D5
:1002C0001BE0284641464746224600F030FA534696
:1002D0005A46C01A914110D311461846224600F0E2
:1002E00017FA2D1A67EB01084F462246012000211C
:1002F00000F00EFA17EB00094E41201EA4F1010494
:10030000DFDC484631462A464346BDE8F09F0029D7
:10031000A8BF7047401C490008BF20F0010070478B
:1003200010B4B0FA80FC00FA0CF050EA010404BFEB
:1003300010BC704749B1CCF1200421FA04F411FA41
:100340000CF118BF012121430843A3EB0C01CB1D85
:100350004FEA00614FEA102042BF002010BC7047F6
:1003600000EBC35010440029A4BF10BC7047401CD0
:10037000490008BF20F0010010BC70472DE9FE4F76
:10038000804681EA0300C00F0C46009021F0004136
:1003900023F00045B8EB0200A94105D240462146B2
:1003A00090461C460B46024623F00040104347D0BF
:1003B000270DC7F30A00C3F30A510290401A0190B7
:1003C00040286BDAC3F3130040F4801B0098924678
:1003D00020B10023D2EB030A63EB0B0B01985946C3
:1003E000C0F14002504600F093F906460D465046D3
:1003F0005946019A00F0ABF910EB08006141002466
:1004000087EA115284EAE7731A4340D0009A62B334
:10041000019A012A4FEA075215DC001B61EB020129
:100420004FF0004202EA0752CDE90042001C41F5BC
:10043000801132462B4600F0ABF903B0BDE8F08FD7
:1004400040462146F9E7001B61EB0201001C41F523
:10045000801300185B412018A2F5001747EB030139
:1004600040EAD570B6196D4111E06D084FEA3606C5
:1004700045EAC0754FEA0752001B61EB0201001C00
:1004800041F5801149084FEA3000001951413246C8
:100490002B4603B0BDE8F04F00F06BB90098012285
:1004A00040000023D0EB020263EBE073009821468A
:1004B0004FEAE074B8EB000061EB0401E9E783F078
:1004C00000435BE781F0004158E72DE9FE4F81EAE8
:1004D000030404F0004421F0004100944FF0000BAD
:1004E00023F0004350EA01045ED052EA03045BD0DB
:1004F000C3F30A54C1F30A552C44A4F2F334019413
:10050000A0FB0254C1F3130141F48011C3F31303A0
:1005100043F4801301FB024400FB034E840A970A54
:1005200044EA815447EA8357A4FB076802958D0A81
:1005300005FB07854FEA932C04FB0C542705029D0D
:100540004FEA065847EA1637B5EB08056EEB070C7D
:10055000870E920E47EA811742EA8312A7FB020137
:10056000B6EB0B0164EB00042B0D43EA0C335E1871
:1005700044EB1C50DA465146E7FB0201C5F3130475
:100580004FEA0B3343EA14534FEA0432019C43EA27
:100590000603A4F10C040294009CCDE900B400F021
:1005A000F7F803B0BDE8F08F00200146F9E72DE928
:1005B000F04D81EA030404F0004B21F0004514469D
:1005C0004FF0000A23F0004150EA050220D054EA1F
:1005D00001021DD0C5F30A570246C5F31303C1F348
:1005E0001300C1F30A5640F4801543F48013A7EBBF
:1005F0000608101BD64608F2FD3873EB050002D33F
:1006000008F1010801E092185B41B8F1000F03DA2C
:1006100000200146BDE8F08D00204FF48011064611
:1006200084460EE0171B73EB050705D3121B63EB23
:10063000050306434CEA010C49084FEA30009218C2
:100640005B4150EA0107EDD152EA030012D082EA81
:10065000040083EA0501084305D0101BAB4106D214
:100660000122002306E000224FF0004302E06FF079
:10067000010253101AEB06004CEB085110EB0A0074
:1006800041EB0B01BDE8F04D00F073B8C1F30A5225
:10069000C1F3130140F2FF3341F480119A4202DAB0
:1006A00000200146704740F233439A42A2F233429F
:1006B00002DC524200F03BB800F02AB830B5041E0C
:1006C00071F1000404DB4FF00044404264EB01018F
:1006D000141E73F1000405DB1C464FF00043524228
:1006E00063EB0403994208BF904230BD064C074DAE
:1006F00006E0E06840F0010394E8070098471034F2
:10070000AC42F6D3FFF7F6FC903B0008B03B000884
:10071000202A04DB203A00FA02F1002070479140C1
:10072000C2F1200320FA03F3194390407047202AB6
:1007300004DB203A21FA02F00021704721FA02F38B
:10074000D040C2F120029140084319467047202A48
:1007500006DBCB17203A41FA02F043EAE07306E0E9
:1007600041FA02F3D040C2F12002914008431946F9
:10077000704710B5141E73F1000408DA401C41F1F3
:10078000000192185B411A4301D120F0010010BD15
:100790002DE9F04D92469B4611B1B1FA81F202E08B
:1007A000B0FA80F220329046FFF7B2FF04460F46BF
:1007B00040EA0A0041EA0B0153465A46084313D067
:1007C000114653EA010019D0C8F140025046FFF724
:1007D000AEFF05460E46504659464246FFF798FF83
:1007E000084305D0012004E020463946BDE8F08DDD
:1007F0000020054346EAE0762C4337430A98630518
:10080000E40AA0EB08000022FD0A44EA47540A303B
:1008100002D500200146E9E7010510196941DDE92B
:10082000084500196941BDE8F04DA2E7FEE7000068
:1008300070470000EFF3108072B600BFFEE70000C3
:1008400010B581B00022009290F82420012A03D133
:100850000221084601B010BD4B680122062B80F82A
:10086000242017D8D0F800C003EB83035A1F1F239E
:10087000DCF834E003FA02F40B682EEA040403FA0D
:1008800002F22243CCF83420092B03EB430219D99E
:1008900036E000BFD0F800C00C2B03EB83021DD85C
:1008A000233A1F23DCF830E003FA02F40B682EEA47
:1008B000040403FA02F22243CCF83020092B03EBA4
:1008C00043021DD8DCF81030072489689440A34304
:1008D00091401943CCF81010002130E0413A1F2319
:1008E000DCF82CE003FA02F40B682EEA040403FAA5
:1008F00002F22243CCF82C20092B03EB4302E1D96E
:10090000DCF80CE01E3A0724896894402EEA0404BF
:10091000914023F001022143102ACCF80C100DD194
:1009200042F20841C4F20101A1F1080294450DD040
:10093000816A41F020018162012100E00021002252
:1009400080F82420084601B010BD00BF0A681202DA
:1009500030D40A68102B42F400020A602CD140F215
:100960000C01C2F2000109684DF68362C4F21B3229
:10097000A1FB0212910C01EB810149000091009949
:10098000E1B10099013900910099C9B1009901398B
:1009900000910099B1B1009901390091009999B184
:1009A000009901390091009900294FF00001E8D128
:1009B000C5E700BF0021C2E70021C0E70021BEE774
:1009C0000021BCE70021BAE70021B8E7B0B5002854
:1009D00000F0A8800446806A20B121688868C007BA
:1009E0000BD114E00020E06284F82400204600F0DF
:1009F0009BF821688868C00709D0886820F001004A
:100A0000886000F0F1F921688A68D20726D1A06ACF
:100A1000C0063AD4A06A41F2021290430230A062AA
:100A2000E069D4E9013240EA030C531EB3FA83F3C0
:100A30005D091346B2F5807F18BF2B02207D257B10
:100A400001284CEA450030D135B3A56A45F02005B0
:100A5000A562E56A45F00105E56226E0054602E08B
:100A60008868C007D3D000F0BFF9401B2168032875
:100A7000F6D38868C007F3D0A06A40F01000A062E7
:100A8000E06A40F00100E062A06AA06A40F0100055
:100A9000A0620120B0BD00BFD4F818C04EF600051A
:100AA000CFF6FF7505EB4C352B434D68B2F5807FD3
:100AB00025F4694543EA05034B608B684FF2FD75E9
:100AC000CFF6E17503EA050343EA00038B6001D02A
:100AD000012A07D122690023CFF6F07303EB0252FB
:100AE00001E000BF0022CB6A23F470031A43CA62FC
:100AF000896840F6FE62CFF61F721140814207D12D
:100B00000020E062A16A012262F30101A162B0BD8E
:100B1000A06A40F0100020F00200A062E06A40F0FD
:100B20000100E0620120B0BD80B586B0014640F60C
:100B30000000C4F20100096800F5E05291424FF054
:100B40000001CDE9041101D006B080BD41F21801C9
:100B5000C4F202010A6842F400720A600A6802F4F0
:100B600000720192019A0A6842F004020A60096860
:100B700001F00401019101990121029103210391E6
:100B800002A900F017F806B080BD0000B0B5044619
:100B900000F02AF9054640F20400C2F20000007895
:100BA000611C18BF044400BF00F01EF9401BA042A6
:100BB000FAD3B0BD2DE9F04F82B00E68002E00F0E0
:100BC000038140F20C4C41F200424FF6FF7EC4F22A
:100BD000010CC4F20102042700240123C1F2100E0B
:100BE0004FF0000A4FF00009904208BF032700971A
:100BF00045E000BF012704F00C030F229A402BEAC6
:100C0000020207FA03F34FEA9A051A4346F8252031
:100C1000D1F804B040F20045C4F201055FEACB32DE
:100C20002A6854BF22EA080242EA08022A606A6877
:100C30005FEA8B3354BF22EA080242EA08026A6084
:100C40005FEACB23AA6854BF22EA080242EA0802FC
:100C50005FEA8B23AA60DCF800204FF0010354BF49
:100C600022EA080242EA0802CCF800200E680AF1E3
:100C7000010A36FA0AF204F1040400F0A58003FA2E
:100C80000AF816EA080FF1D04E68764512DC122EEB
:100C900056D8DFE806F0350B45495555555555559D
:100CA000555555555555554D510000BFD1F80C902F
:100CB00046E000BF4FF6FF72C1F2210296420FDC00
:100CC0000022C1F2110296421AD00022C1F2120291
:100CD000964215D00022C1F22102964210D02FE098
:100CE0000022C1F2220296420AD00022C1F2310251
:100CF000964205D00022C1F23202964220D100BFB6
:100D00008A684AB1012A14BFC0F81480C0F8108064
:100D10004FF0080914E000BF4FF0040910E000BFD5
:100D2000CA6802F108090BE04FF0000908E000BFB3
:100D3000CA6802F1040903E0CA6802F10C0900BFA5
:100D400022460646BAF1080F24BF203A0436376817
:100D50000F25954027EA050509FA02F22A43326079
:100D6000CA79D2067FF582AF41F21803C4F20203BA
:100D70001A6842F001021A601A6802F00102019238
:100D8000019A40F20042C4F20102A2F57E762AF0F6
:100D9000030256F802B040F60002C4F2010290428B
:100DA00010D040F60042C4F2010290423FF422AF5C
:100DB00041F20002C4F20102009F904208BF0227E4
:100DC00019E700BF002716E702B0BDE8F08F00006A
:100DD0008068084018BF012070470000002A08BF43
:100DE000090401617047000040F28C10C2F200005B
:100DF0000068704770B5B8B3044690F83D0028B954
:100E0000002084F83C00204600F0CCFA242084F82E
:100E10003D002068016821F001010160016841F492
:100E200000410160016821F40041016000F0A2FD71
:100E300048F28041C0F21E0140F60013D4F804E0ED
:100E400088424FF00001C0F23D0348F2A16C4FF020
:100E5000000238BF01219842C0F2010C38BF0122C4
:100E6000E64538BF0A460AB1012070BD4DF68361E0
:100E7000C4F21B31A0FB01122168950C4B684FF4A2
:100E8000967623F03F0343EA9243754344F6D356E4
:100E90004B60C1F262060B6AA5FB0656B50923F04A
:100EA0003F03E64538BF950C6A1C1A430A62CA69BB
:100EB00048F2A0664CF6FF73C0F20106B64522EA7E
:100EC00003020BD801384FEA4E03B0FBF3F00130B8
:100ED0006FF31F30042898BF04201EE0A368013878
:100EE00063B119230EFB03F3B0FBF3F001306FF392
:100EF0001F3078B100F5804008E000BF0EEB4E03D4
:100F0000B0FBF3F001306FF31F3028B100F5004063
:100F100003E000BF012000E001201043C861086821
:100F2000D4E9072320F0C000104318430860886804
:100F300048F2FF3204F10C0690434CCE18431043A4
:100F4000A5698860C86820F0FF0030432843C86066
:100F5000086840F00100086000202021206484F827
:100F60003D10206384F83E0070BD00002DE9F04F75
:100F700085B0044600201E4617460D460490FFF734
:100F800033FF94F83D10202923D1804620688169E1
:100F9000890719D5FFF728FFA0EB08001928F5D914
:100FA00000202021206384F83D1084F83E00206C4E
:100FB00004F13C0940F0200020640220002189F85F
:100FC000001005B0BDE8F08FA14619F83C1F0129BB
:100FD00004D1022005B0BDE8F08F00BF012289F8DE
:100FE00000200368DDE90F1A0E9ADB0703D10368BE
:100FF00043F001030360036823F4006303602220CD
:1010000084F83D00402084F83E00002020646262A5
:101010006185608D294620850020CFF6FF70E06253
:1010200020463A463346CDF800A0CDF8048001F0C2
:101030002DFC18B1012005B0BDE8F08F208D0228ED
:1010400010D0012824D0002838D100200390206837
:1010500041690391816903910399016841F4007129
:10106000016037E02068016841F400610160EFF33E
:10107000108072B600200390206841690391816955
:1010800003910399016821F48061016062B621E057
:101090002068016821F480610160EFF3108072B66E
:1010A00000200390206841690391816903910399AD
:1010B000016841F40071016062B60BE020680168CC
:1010C00041F48061016000210391416903918069CD
:1010D00003900398208D002800F0238140F20C0B30
:1010E0004BF289570AF10105C2F2000BC1F2F84731
:1010F000232680B2032819D8022845D001286FD1B1
:10110000BAF1000F00F0FA802068014651F8142F60
:10111000520600F1F7800868C00600F12F81FFF742
:1011200063FEA0EB08005045EED91CE1BAF1000FB8
:1011300012D000BF2068014651F8142F520610D477
:101140000868C00600F11A81FFF74EFEA0EB080008
:101150005045EFD907E100BF20684169490640F1D9
:10116000FB800069616A0870606A2268411C208DFA
:10117000616201382085638D013B638553695B079C
:1011800040F1CC801069BFE020684169490711D463
:10119000002D00F09380BAF1000F00F0E280FFF71D
:1011A00023FEA0EB0800504500F2DD802068406976
:1011B0004007F4D5EFF3108072B62068616A0268C8
:1011C00042F40072026000690870606A218D01308B
:1011D0006062481E2085608D0138608562B668E0D7
:1011E00020684169490710D4002D77D0BAF1000F6B
:1011F00000F0B780FFF7F8FDA0EB0800504500F2C3
:10120000B280206841694907F4D5016821F4806102
:101210000160EFF3108072B62068616A006908709F
:10122000606A218D0130013960622185618D01394B
:101230006185DBF80010C908A1FB0712110A714390
:1012400004910499013904910499002976D0216808
:101250004A6952071DD4049901390491049900295F
:101260006CD021684A69520713D40499013904915A
:101270000499002962D021684A69520709D4049967
:10128000013904910499002958D021684A6952070C
:10129000D7D50A6842F400720A6009690170606A71
:1012A000218D01306062481E2085608D0138608587
:1012B00062B62068616A006926E000BF416949079B
:1012C0003FF578AF416949075CBF41695FEA417109
:1012D0003FF570AF41694907F0D56BE741694907B0
:1012E00093D4416949075CBF41695FEA41713FF5A9
:1012F0008CAF41694907F1D587E700BF2068416994
:10130000490629D50069616A0870606A218D01303B
:101310006062481E2085618D0139618501047FF47A
:10132000E8AE202084F83D00002084F83E00002133
:1013300089F8001005B0BDE8F08F00BF0020202123
:10134000206384F83D1084F83E00206C40F02000BB
:10135000206462B61EE000BF50F8141FC9060146A3
:101360000CD4FFF741FD00202021206384F83D10BC
:1013700084F83E00206C40F020000AE06FF010007E
:10138000086000202021206384F83D1084F83E008E
:10139000206C20640120002189F8001005B0BDE810
:1013A000F08F000010B586B0006845F60001C4F269
:1013B000000188424FF00001CDE90411CDE902118E
:1013C0002AD045F20041C4F20001884248D141F2DE
:1013D0001804C4F20204206802A940F0080020604A
:1013E000206800F0080001900198C02002901220AF
:1013F00003900320059040F60040C4F20100FFF77F
:10140000D9FB606840F400106060606800F4001070
:101410000190019806B010BD41F21804C4F2020414
:10142000206802A940F008002060206800F0080051
:10143000019001984FF44060029012200390032025
:10144000059040F60040C4F20100FFF7B3FB60686E
:1014500040F480006060606800F4800001900198B2
:1014600006B010BD40F2040040F28C11C2F2000040
:10147000C2F2000100780A6810440860704700005A
:1014800080B542F20000C4F20200016841F0100190
:101490000160032000F07AF80F2000F005F800F05A
:1014A00027F8002080BD000070B540F20406C2F2AB
:1014B000000640F20C013278C2F200014FF47A7358
:1014C0000968B3FBF2F20446B1FBF2F1084600F002
:1014D000ADFE0F2C4FF0010508D838B94FF0FF30A2
:1014E00021460022002500F025F87460284670BDD2
:1014F00082B041F21800C4F202000168022241F0F9
:1015000001010160016801F0010101910199416847
:1015100041F080514160406800F080500090009898
:101520000420C4F20100016862F31A61016002B094
:101530007047000010B54EF60C5CCEF2000CDCF8E3
:101540000030C3F3022E8EF00704042C28BF0424BD
:10155000BEF103034FF0FF3E0EFA04F438BF002340
:10156000A14399400EFA03F39A43114300F00F028E
:1015700000F160430901043A03F564436244002822
:1015800048BF02F10C03197010BD00004EF60C515B
:10159000CEF200010A684FF6FF031A4060F30A22F8
:1015A00042F0806040F0FD70086070472020C4F277
:1015B0000E2001210160704780B5012818D0022853
:1015C00036D0102832D141F20401C4F202010A6877
:1015D00051F8040CC00129D5C2F383402DA3185C37
:1015E000D2033DD440F60012C0F23D02504343E026
:1015F00041F20400C4F20200C16940F202320A4022
:10160000B2F5817F04BF4FF4004080BD01F440710A
:10161000B1F5407F1CD0B1F5007F07D1006A49F6D3
:101620004041800701EAE07080BD00BF002080BD1E
:1016300000F0B4F941F20401C4F202010968022287
:10164000C1F3813102EB4101B0FBF1F080BD00BF7D
:1016500050F8040C4FF22441800301EAE07080BD91
:101660000A6810A3C2F340429A5C41F20023C0F220
:101670007A03B3FBF2F250430968490248BF80BDC8
:101680004AF6AB214000CAF6AA21A0FB0101480896
:1016900080BD00BF02030405060708090A0B0C0DF4
:1016A0000E0F1010010200002DE9F04182B0044637
:1016B000007841F21C06C007C4F202064AD0306826
:1016C00010F0805808D1306840F0805030603068A9
:1016D00000F080500190019847F20007C4F2000723
:1016E0003868C00512D4386840F480703860FFF75D
:1016F0007BFB05463868C00508D4FFF775FB401B27
:101700006428F7D9032002B0BDE8F081706810F4B6
:10171000407012D0616801F4407188420DD0706849
:1017200040F24042C4F24222012320F4407113608F
:101730000023C007136071602AD17068616820F4CB
:1017400040700843B8F1000F706003D1306820F09A
:10175000805030602068810707D556F8181CA268B1
:1017600021F44041114346F8181CC00604D400205F
:1017700002B0BDE8F08100BF56F8180CE16820F413
:101780008000084346F8180C002002B0BDE8F08144
:10179000FFF72AFB054641F2883700BF70688007D3
:1017A000CBD4FFF721FB401BB8424FF00300F5D923
:1017B000EBE700002DE9F04381B0002800F08580C0
:1017C00042F20008C4F202080446D8F800000D46B0
:1017D00000F0070088420CD2D8F8000020F0070083
:1017E0002843C8F80000D8F8000000F00700A8421D
:1017F0006BD1206841F204098107C4F2020917D5B0
:10180000410705D5D9F8001041F4E061C9F800108E
:10181000010705D5D9F8001041F46051C9F800104E
:10182000D9F80010A26821F0F0011143C9F80010A6
:10183000C00741D1D8F8000000F00700A8420CD939
:10184000D8F8000020F007002843C8F80000D8F8B6
:10185000000000F00700A84237D12068410707D5F3
:10186000D9F80010E26821F4E0611143C9F80010D2
:10187000000708D5D9F80000216920F4605040EA3B
:10188000C100C9F80000D9F8002002F00C000828B7
:1018900041F20020C0F27A0050D143F67E33C2F309
:1018A0008341C0F60003595CD2033BD440F60010DC
:1018B000C0F23D00484341E0606802280AD0012898
:1018C0002AD159F8041C890308D4012001B0BDE8CD
:1018D000F08300BF59F8041C8901F6D5D9F800102F
:1018E00021F003010843C9F80000FFF77DFA06461E
:1018F00041F28837D9F80000616800F00C00B0EBC5
:10190000810F97D0FFF770FA801BB842F2D90320FD
:1019100001B0BDE8F08300BF59F8041C8907D4D595
:10192000DCE700BFD9F8002043F66433C2F340423D
:10193000C0F600039A5C4843B0FBF2F0D9F80010FF
:1019400043F66632C1F30311C0F60002515C40F267
:101950000C0220FA01F140F20800C2F20000006817
:10196000C2F200021160FFF79FFD002001B0BDE848
:10197000F083000040F20C0041F20401C2F20000CA
:10198000C4F202010068096843F67632C1F302210D
:10199000C0F60002515CC8407047000040F20C00E5
:1019A00041F20401C2F20000C4F2020100680968B9
:1019B00043F67632C1F3C221C0F60002515CC84042
:1019C000704700002DE9F04182B0002868D004463D
:1019D000007841F20006C007C4F2020625D0706804
:1019E00000F00C0004281BD0706800F00C000828E0
:1019F00002D17068C00313D46068002800F06881C9
:101A0000B0F5A02F00F07C81B0F5803F00F07C8124
:101A1000306820F480303060306820F4802076E137
:101A20003068800301D56068D0B32078800718D56E
:101A3000706810F00C0F07D0706800F00C000828D8
:101A40006ED17068C0036BD43068800702D52069FE
:101A5000012825D13068616920F0F80040EAC10012
:101A60003060207800071FD42078400732D4E56921
:101A700095B1706800F00C00082840F08F80012DAF
:101A80000ED07068216A00F480328A4208D1616AFF
:101A900000F47010884203D1002002B0BDE8F0814C
:101AA000012002B0BDE8F081A069002862D00020CA
:101AB000C4F242200121C0F88014FFF795F90546D1
:101AC000706A800700F18C80FFF78EF9401B0228B6
:101AD000F6D92AE1F06910F0805808D1F06940F099
:101AE0008050F061F06900F080500090009847F25B
:101AF0000007C4F200073868C00529D4386840F4EC
:101B000080703860FFF770F9054600BF3868C0057F
:101B10001ED4FFF769F9401B6428F7D905E100BF1F
:101B20002069002840F20000C4F2422000F08280C8
:101B300001210160FFF758F9054600BF30688007B2
:101B40003FF588AFFFF750F9401B0228F6D9ECE0CB
:101B5000E068002800F08080052800F097800128C8
:101B600000F09880306A20F001003062306A20F086
:101B7000040092E00020C4F242200021C0F880144A
:101B8000FFF732F9054600BF706A80077FF56CAF3A
:101B9000FFF72AF9401B0228F6D9C6E00027C4F255
:101BA000422700203866FFF71FF9022D05460BD1AA
:101BB0003068800140F1BE80FFF716F9401B022813
:101BC0004FF00300F4D968E7306880017FF564AF17
:101BD000FFF70AF9401B02284FF00300F4D95CE735
:101BE00040F20C00C2F20000006844F6D351C1F28A
:101BF0006201A0FB0101480A019000BF00BF0198EB
:101C0000411E002801913FF42FAF00BF0198411EF3
:101C1000002801913FF428AF00BF0198411E002821
:101C200001913FF421AF00BF0198411E00280191AE
:101C3000E4D119E700210160FFF7D6F8054600BF9F
:101C4000306880077FF50DAFFFF7CEF8401B022804
:101C50004FF00300F4D920E7306A20F00100306231
:101C6000306A20F004003062FFF7BEF8054641F20A
:101C7000883700BF306A800720D5FFF7B5F8401BD2
:101C8000B8424FF00300F5D907E700BF306A40F0D3
:101C900004003062306A40F001003062FFF7A4F8BF
:101CA000054641F2883700BF306A800706D4FFF747
:101CB0009BF8401BB842F7D937E000BFB8F1000FDE
:101CC0007FF4D5AEF06920F08050F061CFE600BF20
:101CD000306820F480303060306820F4802030603C
:101CE000FFF782F8054600BF306880037FF59DAEA0
:101CF000FFF77AF8401B64284FF00300F4D9CCE6D4
:101D0000306840F480203060306840F480303060CB
:101D1000FFF76AF8054600BF306880033FF585AEDF
:101D2000FFF762F8401B6428F6D9032002B0BDE833
:101D3000F08100BF206AB0F5803F05D17168A268CC
:101D400021F40031114371607168626A21F47411E9
:101D500011430843706001203866FFF745F80446D8
:101D6000306880013FF598AEFFF73EF8001B02286F
:101D70004FF00300F4D990E670B500286AD004460D
:101D8000407C20B900202074204600F073F8022027
:101D900060742068416821F008014160FFF724F871
:101DA000064600BF20684568FFF71EF8290705466C
:101DB0000ED4A81BB0F57A7FF4D9012504206074F5
:101DC000284670BDFFF710F8401BB0F57A7FF4D8B5
:101DD000216848688006F5D5486846F62C4240F0F0
:101DE000100048604868C4F2000220F00700486014
:101DF000A06818B1536823F001035360136823F4FB
:101E00006073184310606068421C06D101200125F0
:101E1000FFF7D2FB50B3216801388A6822F00F0225
:101E200042EA10428A60CA6860F30F02CA604868DA
:101E300020F010004860FEF7D7FF05462068406894
:101E4000800609D4FEF7D0FF401BB0F57A7FF5D9A4
:101E5000B3E700BF012070BD40F201100025A4F8D7
:101E60000D000120E5736074284670BD0420607485
:101E7000284670BD80B582B0006842F60001C4F209
:101E80000001884202D002B080BD00BFFFF78EFB88
:101E900041F21C00C4F20200016841F000610160DF
:101EA0000068012100F000600190019840F23C4080
:101EB000C4F24220016002B080BD0000F0B581B0E4
:101EC000044600284FF0010018BF002902D101B0DC
:101ED000F0BD00BF207C01284FF00200F7D00123A5
:101EE00023746074CB78BAB1180900EB800003F05A
:101EF0000F0202EB400348788A78070907EB87074F
:101F000000F00F0000EB4707100900EB800002F023
:101F10000F0202EB400001E04F788878022FDAB21E
:101F2000E3736773A0730FD817237B4348F63967B1
:101F3000C3F6E307A3FB0737C7F3470C02F2CF73DF
:101F400040F2D47E0CE000BF47F2D916FFB2C0F2D7
:101F50001406774302F5FA634FEAD74C40F2D27E7B
:101F6000C0B210449D0841F27B4770446F431D0985
:101F700040F63E2600EB93007543A0EB574000EB84
:101F80001540604482B242F293435A43A0EB12439D
:101F90009BB25B0803EB12429208A2EBC202104410
:101FA0002268207308709169D0699369002683EADA
:101FB00001073F041CBFD069194680B240EA0140C6
:101FC00045F69071C0F2010188421BD344F20751DB
:101FD000CCF22E21A0FB0112110C40F2A32251439E
:101FE000A0EBC117FEF700FF054600BF206841685F
:101FF00089060DD4FEF7F8FE401BB0F57A7FF5D9BF
:1020000020E000BF012100206174267401B0F0BD02
:10201000416841F010014160390C8161B9B2C16180
:10202000416821F010014160FEF7DEFE054600BF69
:102030002068416889060BD4FEF7D6FE401BB0F538
:102040007A7FF5D9012004216174267401B0F0BDB6
:10205000016A406A80B240EA0140B84230D200F5DD
:10206000803000F5A347FEF7BFFE054620684168B3
:10207000890607D4FEF7B8FE401BB0F57A7FF5D984
:10208000E0E700BF416841F010014160390C016296
:10209000B9B24162416821F010014160FEF7A4FE2F
:1020A00005462068406880060AD4FEF79DFE411B65
:1020B0000120B1F57A7F4FF00401F2D9A4E700BF07
:1020C000002001216174267401B0F0BD70B5044692
:1020D00000284FF0010018BF002901D170BD00BFDA
:1020E000207C01284FF0020008BF70BD012323743B
:1020F0006074087802B3020902EB820200F00F005C
:1021000000EB4200C0B24FF4616250434A788978D4
:10211000130903EB830302F00F0202EB4302D2B276
:10212000C2EB021200EB82000A0902EB820201F00C
:102130000F0101EB420108E04FF4616250434A781D
:102140008978C2EB021200EB8200C9B24618FEF792
:102150004BFE054620684168890607D4FEF744FE19
:10216000401BB0F57A7FF5D91AE000BF416841F015
:1021700010014160310C8161B1B2C161416821F04F
:1021800010014160FEF730FE054600BF206841683F
:1021900089060BD4FEF728FE401BB0F57A7FF5D9EF
:1021A0000120042161740021217470BD416821F077
:1021B00005014160016A406A80B240EA0140B042D4
:1021C0002ED200F5803000F5A346FEF70DFE054641
:1021D00020684168890607D4FEF706FE401BB0F56B
:1021E0007A7FF5D9DCE700BF416841F0100141601A
:1021F000310C0162B1B24162416821F010014160CD
:10220000FEF7F2FD054600BF20684068800607D44F
:10221000FEF7EAFD401BB0F57A7FF5D9C0E700BFB5
:102220000020012161740021217470BD411E002035
:10223000B0EB116F1CBF012070474EF21002CEF2BE
:10224000000251604EF62351CEF20001F0230B70D4
:10225000072190601160704710B590F83C20012A6A
:102260004FF0020233D080F83D200268D2F804E03B
:10227000D2F808C00C682EF07003234340F2FF74BC
:10228000C4F20004A24253600ADCB2F1804F13D0C2
:1022900040F20043C4F200039A420DD011E000BFA7
:1022A00042F60043C4F201039A4205D040F600030F
:1022B000C4F200039A4204D149682CF08003194308
:1022C00091600121002280F83D1080F83C201046EA
:1022D00010BD0000002804BF0120704710B504465F
:1022E00090F83D0028B9002084F83C00204600F01A
:1022F00067F8022084F83D00206840F2FF7302680E
:10230000C4F2000342F6004C9842C4F2010C15DC02
:10231000B0F1804F1AD040F20041C4F2000188426F
:1023200014D0984218DCB0F1804F1DD040F200412B
:10233000C4F20001884217D01AE000BF604505D002
:1023400040F60001C4F200018842EAD1A16822F0FF
:1023500070020A439842E6DD604505D040F6000170
:10236000C4F20001884203D1216922F440720A4379
:10237000A36922F08001D4F804E0E26819436045C3
:102380000160C262C0F828E002D16169CCF8301067
:1023900001214161002084F8461084F83E1084F841
:1023A0003F1084F8401084F8411084F8421084F8FB
:1023B000431084F8441084F8451084F83D1010BD93
:1023C00081B0006842F60041C4F20101884201D0A8
:1023D00001B0704741F21800C4F20200016841F4F4
:1023E00000610160006800F400600090009801B096
:1023F0007047000080B590F83C20012A4FF002029F
:1024000000F0BF8080F83D20D0F800C04FF6777212
:10241000DCF8083023EA0202CCF808200B683F2BD6
:102420001CDD5F2B20DD602B50D0B3F5005F6DD03D
:10243000702B40F0A080D1E901E3C968DCF80820E6
:1024400043EA0E0322F47F4243EA01211143CCF810
:102450000810DCF8081041F077018AE01F2B29DC16
:1024600063B3102B2AD086E0402B63D0502B40F072
:102470008280D1F804E0C968DCF82030DCF8202044
:1024800022F00102CCF82020DCF8182022F0F00223
:1024900042EA011123F00A0242EA0E02CCF81810B7
:1024A000CCF82020DCF8081041F0570121F0200181
:1024B0005FE000BF202B01D0302B5CD1DCF808108E
:1024C00021F07001194341F0070152E0D1F804E016
:1024D000C968DCF8203023F01003CCF82030DCF899
:1024E0001830DCF8202023F4704322F0A00243EAE5
:1024F000013142EA0E12CCF81810CCF82020DCF89A
:10250000081041F0670121F0100132E0D1E901E348
:10251000C968DCF8082043EA0E0322F47F4243EA4C
:1025200001211143CCF80810DCF8081041F4804177
:102530001FE000BFD1F804E0C968DCF82030DCF807
:10254000202022F00102CCF82020DCF8182022F014
:10255000F00242EA011123F00A0242EA0E02CCF82C
:102560001810CCF82020DCF8081041F0470121F0C9
:102570003001CCF808100121002280F83D1080F8CD
:102580003C20104680BD0000002804BF0120704799
:1025900010B5044690F83D0028B9002084F83C00AE
:1025A000204600F061F8242084F83D002068D4E93A
:1025B0000212C36823F40053C360036923F4405339
:1025C0001A430261D4E904231143C268194341F25A
:1025D0000C639A431143C1604169A26921F44071BF
:1025E000114343F60002C4F201029042416103D05C
:1025F000FFF7C0F902E000BFFFF7D0F962681921C8
:1026000048439100B0FBF1F048F21F51C5F2EB11C5
:10261000A0FB01235A094FF69C73C0F6FF7302FB1F
:102620000300322303EB0010A0FB0101F02303EAB7
:102630005113206803EB0212C1F34311114481606E
:10264000016921F490410161416921F02A01416150
:10265000C16841F40051C16000202021206484F849
:102660003D1084F83E1010BD70B586B040F60004F1
:10267000C4F20104006804F5405100268842049623
:1026800002D006B070BD00BF41F21800C4F20200D3
:10269000016802AD41F480410160016801F48041AC
:1026A00001910199016841F0040101600068294627
:1026B00000F00400019001984FF400700290022095
:1026C0000390032005902046FEF774FA4FF48060D3
:1026D000CDE90206204629460496FEF76BFA06B0BD
:1026E00070BD00002DE9F041044690F83D0020281F
:1026F0000ED10D4600294FF0010000F08E801646E5
:10270000002A08BFBDE8F08194F83C00012803D1FD
:102710000220BDE8F08100BF012084F83C000020C9
:1027200020642120984684F83D00FEF75DFBA684D6
:10273000E684A1680646B1F5805F03D120690028D0
:1027400000F0A0802F460025002084F83C00E08C9B
:10275000E0B118F101001BD0B8F1000F60D1206882
:102760000BE000BF35F8021B00276FF35F214160CB
:10277000E18C0139E184E18C51B3016809066DD522
:10278000002FEFD017F8011BF1E700BF20681FE012
:10279000206802E00168090609D40168090606D428
:1027A000016809065CBF01685FEA0161F2D51FB1EB
:1027B00017F8011B05E000BF35F8021B00276FF377
:1027C0005F214160E18C0139E184E18C0029E4D191
:1027D000016849061DD4B8F1000F3FD018F101017E
:1027E0000ED10168490614D4016849065CBF01682E
:1027F0005FEA41610DD401684906F2D509E000BFE6
:10280000FEF7F2FA811B2068414527D80068400690
:10281000F6D5202084F83D000020BDE8F08100BFFF
:10282000206800BF0168090606D4FEF7DDFA811BA7
:1028300020684145F6D911E017B117F8011B04E0F3
:1028400035F8021B00276FF35F214160E18C0139ED
:10285000E184E18C0029E5D1BAE700BFC16821F429
:10286000D071C160416921F001014161202084F8EB
:102870003D0084F83E00002084F83C000320BDE8C1
:10288000F08100BF00275FE7FEE700002DE9F0437D
:1028900083B00446006899460368904643F480621A
:1028A000026002680B9D42F48072026042690A9ED7
:1028B000D2070F461DD1711C11D0002E00F03681B9
:1028C000FEF792FA401BB04200F232812068416963
:1028D000C907F5D00DE000BF4169C90709D14169B9
:1028E000C90706D14169C90704BF41695FEAC171DF
:1028F000F2D007F0FE0707614169890738D44169C2
:10290000721C01F4806111D049BB002E00F03A81A5
:10291000FEF76AFA401BB04200F236812068416936
:10292000890725D441694905F2D518E0B9B941694B
:1029300089071DD44169490511D44169890717D414
:10294000416949050BD44169890711D44169490599
:1029500005D4416989070BD441694905E7D5016868
:1029600041F4007101606FF48061416104200CE169
:1029700000210291014651F8142F02924A680292F6
:10298000029A0A68120620D4002E00F0AB80721C56
:1029900051D10A68520500F1AD800A68120614D4BC
:1029A0000A68520500F1A6800A6812060DD40A686A
:1029B000520500F19F800A68120606D40A68520583
:1029C00000F198800A681206E3D5B9F1010F45D0ED
:1029D0004FEA18210161014651F8142F12063DD427
:1029E000002E00F07F80721C2AD10A68520500F187
:1029F00081800A68120631D40A6852057AD40A68BE
:102A000012062BD40A68520574D40A68120625D41B
:102A10000A6852056ED40A681206E6D51EE000BFA9
:102A2000FEF7E2F9401BB04261D82068014651F838
:102A3000142F1206C9D408684005F1D55AE000BF2A
:102A40000868400556D4FEF7CFF9401BB0424ED877
:102A50002068014651F8142F1206F1D55FFA88F16B
:102A60000161014651F8142F12061AD4D6B3721C14
:102A700033D10A6852053DD40A68120611D40A6897
:102A8000520537D40A6812060BD40A68520531D4AD
:102A90000A68120605D40A6852052BD40A68120681
:102AA000E7D50168002241F48071016020464FF0B3
:102AB00001113346009500F079F8002850D02068C5
:102AC000006844E0FEF790F9401BB0420FD8206840
:102AD000014651F8142F1206E3D408684005F1D5D9
:102AE00008E000BF0868400504D4FEF77DF9202007
:102AF00004E000BF6FF48060086004200021202201
:102B0000216384F83D2084F83E10226C1043206439
:102B100084F83C10206C042843D12068016841F4FB
:102B200000710160012003B0BDE8F083FEF75CF99D
:102B300000202021206384F83D1084F83E00216CA1
:102B400041F020012164216884F83C000868C00538
:102B500044BF4FF400702064032003B0BDE8F0834D
:102B6000206847F0010101610221C0F20101204605
:102B700032462B4600F0C2F8002818BF012003B0EF
:102B8000BDE8F083FEF730F92020002120222163E8
:102B900084F83D2084F83E10226C1043206484F8B1
:102BA0003C10012003B0BDE8F08300002DE9F041A6
:102BB00005461446DDF8188001F47F002A681E4699
:102BC000B0F5803F8FB241D150693840C01BB0FA98
:102BD00080F04009A0427BD1701C2DD0002E7BD00C
:102BE000FEF702F9A0EB0800B04277D828684069E8
:102BF0003840C01BB0FA80F04009A042F0D000205D
:102C0000BDE8F08150693840C01BB0FA80F040093F
:102C1000A0425DD150693840C01BB0FA80F0400935
:102C2000A04255D150693840C01BB0FA80F040092D
:102C3000A0424FF000005FD150693840C01BB0FA8D
:102C400080F04009A042DDD042E000BF90693840EA
:102C5000C01BB0FA80F04009A04239D1701C1FD0CF
:102C6000D6B300BFFEF7C0F8A0EB0800B04235D8DD
:102C7000286880693840C01BB0FA80F04009A04243
:102C8000F0D00020BDE8F08190693840C01BB0FA58
:102C900080F04009A0424FF0000018BFBDE8F0816D
:102CA00090693840C01BB0FA80F04009A0420FD1B3
:102CB00090693840C01BB0FA80F04009A04207D1AB
:102CC00090693840C01BB0FA80F04009A042DBD0C8
:102CD0000020BDE8F08100BFFEF786F8002020212B
:102CE000286385F83D1085F83E00296C41F02001ED
:102CF000296485F83C000120BDE8F081F0B581B081
:102D0000044600681D4643698FB203EA0701B942D1
:102D100002D1002001B0F0BD41691646013201F434
:102D200080610FD059BB9EB3FEF75EF8401BB042E6
:102D300030D8206841693940B942EAD04169490533
:102D4000F2D51CE0D9B941693940B942E1D04169B5
:102D5000490514D441693940B942DAD0416949057D
:102D60000DD441693940B942D3D04169490506D4EF
:102D700041693940B942CCD041694905E3D5016880
:102D800041F4007101606FF480614161042002E050
:102D9000FEF72AF8202000212022216384F83D201C
:102DA00084F83E10226C1043206484F83C1001200B
:102DB00001B0F0BDB0B584B02020022140F2100473
:102DC000CDE9011040F29800C2F20004C2F2000006
:102DD0000021072201230094FEF7C8F860782178CB
:102DE000020241EA002084B2204615B2FDF730FA13
:102DF0000146FDF797F946F20061CCF2D561FDF787
:102E000091F90021C4F2C821FDF7E4F942F2AC7156
:102E10000022CCF2C8228C4298BF1046B5F1FF3F89
:102E2000D8BF104604B0B0BDB0B584B040F21400B5
:102E300042F20041C2F20000C4F201010024012567
:102E40004FF4602205730475C261C0E90014846008
:102E50000561FDF7BBFD002818BFFDF7EBFC40F254
:102E60001400C2F2000001A9CDE901450394FDF769
:102E7000E7FC002818BFFDF7DDFC04B0B0BD000082
:102E8000F0B585B041F21800C4F20200016840F6C6
:102E9000004441F0100101600168C4F2010401F036
:102EA0001001019101990168002241F020010160A7
:102EB00001684FF4805501F02001019101990168EA
:102EC000002641F004010160016801F00401019154
:102ED0000199016841F00801016000684FF48051D8
:102EE00000F00800019001982046FDF777FF0220CE
:102EF00001950390032001AD012704902046294647
:102F00000297FDF757FE4FF4604001A9C1C120466A
:102F10002946FDF74FFE4FF4807001A9C1C1A4F509
:102F200080602946FDF746FE05B0F0BD80B540F251
:102F3000440045F20041C2F20000C4F2000148F230
:102F4000A06200234FF4804CC0F2010280E80E0022
:102F5000C0E9033CC0E90533C0E90733FDF74AFF88
:102F6000002808BF80BDBDE88040FDF763BC0000BD
:102F700080B540F2980045F60001C2F20000C4F2AC
:102F8000000148F2A06200234FF4804CC0F201021D
:102F900080E80E00C0E9033CC0E90533C0E907330F
:102FA000FDF728FF002808BF80BDBDE88040FDF781
:102FB00041BC000010B582B040F20050C2F20730B0
:102FC000009040F2EC0042F60001C2F20000C4F2B0
:102FD00000014FF0FF32002480E81600FEF7CCFE1F
:102FE000002818BFFDF726FC0820ADF8040040F2C9
:102FF000EC00C2F2000001A901228DF80640FFF7A3
:1030000065F8002818BFFDF715FC40F2EC00C2F28D
:10301000000069460122FEF751FF002818BFFDF7A6
:1030200009FC02B010BD000080B586B040F200106F
:1030300042F600420021C2F20000C4F2010247231E
:103040004FF6FF7C0591CDE90311CDE90011C0E9F0
:103050000023C0E9021CC0E904118161FFF73AF9BD
:10306000002818BFFDF7E6FB4FF48050029040F2B5
:103070000010C2F2000002A9FFF7BCF9002818BF37
:10308000FDF7D8FB40F20010C2F200006946FFF7DE
:10309000E3F8002818BFFDF7CDFB06B080BD0000A7
:1030A00080B540F2481043F60001C2F20000C4F2BD
:1030B000010100234FF00C0C4FF4165280E80E0073
:1030C000C0E90333C0E905C3C361FFF75DFA002817
:1030D00008BF80BDBDE88040FDF7ACBBFEE7000047
:1030E000FEE700007047000070470000FEF7BAB925
:1030F00070470000FEE7000080B582B0019040F20A
:103100004810C2F2000001A901224FF6FF73FFF739
:10311000E9FA019802B080BD94B0FEF7B1F9092038
:1031200000240A904FF480300225CDE90B04CDE94C
:1031300011504FF4E010012113900AA80F94CDE92B
:103140000D4404940E911091FEF73CFC20B1EFF376
:10315000108072B6FEE700BF0F20CDE905054FF4E1
:103160008060CDE9080405A802210794FEF722FB40
:1031700020B1EFF3108072B6FEE700BF032001908C
:103180004FF4007002904FF40040039001A8FEF746
:103190008BFA28B1EFF3108072B600BFFEE700BFD4
:1031A00040F60004C4F20104FFF76AFEFFF778FF5F
:1031B000FFF73AFEFFF7BAFEFFF736FFFFF7D8FE3C
:1031C000FFF7F8FE17A000F0BBFC18A50FF264088B
:1031D00004F580660FF268090BE000BF4746322015
:1031E000FDF7D4FC384600F0ABFC4FF47A70FDF7E5
:1031F000CDFCFFF7DFFDFDF730F8024628460B4611
:1032000000F024F820464FF48071FDF7E1FD00281E
:10321000E4D030464FF40041FDF7DAFD0028E4D158
:103220004F46DCE748656C6C6F000000252E316668
:103230000A000000506F7765723A204F4E2100005F
:10324000506F7765723A204F464621000FB4054B08
:1032500010B503A9044A029800F0DAF810BC5DF832
:1032600014FB0000F93000080000002002E008C84C
:10327000121F08C1002AFAD170477047002001E0F0
:1032800001C1121F002AFBD1704700002DE9FF5F2A
:1032900082B00021DDE90430020DDDF840B00343C7
:1032A00018D044F61050A2F2FF3242431514119880
:1032B00001281FD0A5EB0B00401C5FEA000A4FF06D
:1032C00000064E4FDFF83891B046504615D5CAF18A
:1032D000000413E0119801244AA3012801D16FEAE8
:1032E0000B010298119AC0E90031C0E9024206B010
:1032F000BDE8F09FCBF10000DFE704460021404A23
:10330000491842EB0450CDE9001012E0E00707D065
:1033100032463B4640464946FDF7D7F88046894647
:1033200032463B4610461946FDF7CFF806460F4693
:103330006410002CEAD1DDE90401DDE90023BAF1D3
:10334000000F06DAFDF7C1F842464B46FDF7BDF81F
:1033500005E0FDF72CF942464B46FDF728F90446F7
:103360000E460022284BFDF7A9F903D84FF0FF3095
:10337000014607E00022254B20463146FCF7FEFFC0
:10338000FDF784F9102409E0002C0ADB0A2200234F
:10339000FCF78CFF039B30321A55641E50EA010281
:1033A000F2D1641C039AC4F111031444119A012A46
:1033B00003D0012208430DD10AE0084304D00020C5
:1033C0004FF0110B119072E7A3EB0B056D1E0DE092
:1033D0005B4504DD4FF0000205F1010504E003DA6E
:1033E0004FF00002A5F10105002AECD002981199D6
:1033F000C0E90231C0E9004579E70000000014404F
:103400000000F03F300000000000F0430000E03F0B
:103410002DE9FF4F95B09B468946064600250FE2F1
:10342000252877D100242746F84A0121059400E099
:10343000044316F8013F203B01FA03F01042F7D194
:1034400030782A2811D06FF02F033078A0F13002A5
:10345000092A16D8059A44F0020402EB820203EB13
:1034600042021044761C0590EFE759F8042B0592B0
:10347000002A03DA504244F40054059044F0020458
:10348000761C30782E2816D116F8010F44F004046B
:103490002A280DD06FF02F023078A0F13003092BCD
:1034A00009D807EB870302EB4303C718761CF3E741
:1034B00059F8047B761C30786C280FD006DC4C2839
:1034C00017D068280DD06A2814D104E0742810D0D1
:1034D0007A280FD10DE044F400140AE044F480147B
:1034E00001E044F440147278824202D104F5801461
:1034F000761C761C307866280BD013DC582877D0E1
:1035000009DC002875D04528F6D04628F4D0472895
:103510001AD19DE118E0632835D0642879D0652858
:1035200012D195E1702873D008DC6728F1D06928A2
:103530006FD06E280DD06F2806D1B5E073282CD03F
:10354000752875D0782874D05A46179990476D1C05
:1035500075E1C4F30250022809D003280DD0D9F830
:10356000001004280DD00D6009F1040967E1D9F8B5
:103570000010EA17C1E90052F6E7D9F800100D80F3
:10358000F2E70D70F0E719F8041B8DF80010002029
:103590008DF80100EA46012003E059F804AB4FF032
:1035A000FF3061074FF0000102D40DE008F1010186
:1035B0008846B9420FDA8045F8DB1AF8081000296E
:1035C000F4D108E008F1010188468142FADB1AF8DB
:1035D00008100029F6D105985B46A0EB08072146A4
:1035E0003846179A00F094FA284400EB080507E0E3
:1035F0004DE029E10DE01AF8010B5A461799904762
:10360000B8F10108F7D25B4621463846179A13E114
:1036100042E00A220092C4F302524FF0000A022A4A
:1036200008D059F804CB032A4FEAEC710AD00DE018
:1036300029E02AE009F1070121F00702F2E802C1BE
:10364000914609E00FFA8CFC4FEAEC71042A03D191
:103650004FFA8CFC4FEAEC71002907DA0A46002188
:10366000DCF1000C61EB02012D2202E0220504D501
:103670002B228DF80420012203E0E20701D0202252
:10368000F7E7904659E00A2102E010220DE01021F0
:103690004FF0000A00910BE010224FF0000A44F0B6
:1036A00004040827009203E008224FF0000A009269
:1036B000C4F30252022A05D059F804CB0021032A90
:1036C00008D009E009F1070121F00702F2E802C180
:1036D000914605E01FFA8CFC042A01D10CF0FF0C86
:1036E0004FF00008220728D5702806D0009B83F0F1
:1036F000100353EA0A0305D00EE040228DF804209F
:10370000012208E05CEA010206D030228DF8042094
:103710008DF8050002229046009B83F0080353EACF
:103720000A030AD15CEA010201D1620705D5302201
:103730008DF804204FF001087F1E582804D034A0D3
:1037400003900EA802900DE036A0F9E753466046BC
:10375000009AFCF7ABFD84460398825C0298401EF9
:10376000029002705CEA0100F0D1029806A9081AE2
:1037700000F1200A600702D524F4803400E001271C
:10378000574502DDA7EB0A0000E0002000EB0A012C
:10379000009005984144401A0590E00306D45B462A
:1037A0002146179A059800F0B3F90544002706E072
:1037B00001A85A46C05D179990476D1C7F1C47456C
:1037C000F6DBE0030CD55B462146179A059800F01E
:1037D0009FF9054404E030205A46179990476D1C24
:1037E0000099481E00900029F5DC08E00298029933
:1037F0005A460078491C0291179990476D1CBAF1FE
:103800000001AAF1010AF1DC65E1000009280100CC
:103810003031323334353637383961626364656646
:103820000000000030313233343536373839414208
:10383000434445460000000000F058F90544761C5A
:10384000307800287FF4ECAD19B02846BDE8F08F41
:10385000620700D4062709F1070222F0070CFCE8F2
:103860000223E14603F000485FEA080C02D00FF2A1
:10387000702C0DE05FEA045C02D50FF2682C07E0C3
:103880005FEAC47C02D00FF2602C01E0AFF2700C52
:103890004FF0FF3823F00043CDF850C065280CD01E
:1038A00006DC452809D046281DD047283DD13DE0FB
:1038B000662818D067287ED138E00021112F01DB5F
:1038C000112000E0781CCDE9000106A90EA8FFF741
:1038D000DDFCDDE90F010E9A03910021009207F152
:1038E000010A04914DE04FF000400097CDE901102E
:1038F00006A90EA8FFF7CAFCDDE90F0203920E9B92
:1039000011990022DDF80CA00093049211B9791CE2
:1039100000EB010AB7EB0A0004D4C0F1FF3007F155
:10392000010A0490AAEB0700019044E0012F00DA9D
:1039300001270021112F01DD112000E03846CDE9DB
:10394000000106A90EA8FFF7A1FCDDE90F010E9A00
:103950000391002104910092BA4621070CD40399E7
:10396000514500DA8A46BAF1010F05DD009AAAF145
:103970000101515C302908D0B84202DA10F1040F7D
:1039800006DA0121CDE9011015E0AAF10101E9E70C
:10399000002805DC049901440491AAEB000102E02F
:1039A000411C514500DD8A460499401A401C019093
:1039B0004FF000400290200704D40198504501DBED
:1039C000CDF8048000208DF84F0002980DF14F07CC
:1039D000B0F1004F25D02B200E9002984FF0020836
:1039E00000280CDA404202902D200E9007E00A21B8
:1039F0000298FCF745FC3031029007F8011DB8F140
:103A00000001A8F10108F2DC02980028EFD1791E2C
:103A10000E980870307800F0200040F0450007F85C
:103A2000020D12A8C01B00F107081498007800B11D
:103A3000012000EB0A01019801EBE0710598414477
:103A4000401A401E0590E00306D45B462146179AB3
:103A5000059800F05DF805441498007818B15A46AE
:103A6000179990476D1CE00324D55B462146179AB1
:103A7000059800F04DF805441CE00498002807DB89
:103A8000DDE90301884203DD0098405C179901E0FD
:103A9000179930205A469047049805F10105401CBB
:103AA00004900198401E019004D12E205A46179987
:103AB00090476D1CBAF10001AAF1010ADDDC05E0B6
:103AC00017F8010B5A46179990476D1CB8F1000181
:103AD000A8F10108F4DC5B462146179A0598ABE68D
:103AE0002D0000002B000000200000002DE9F04117
:103AF000044600251E461746880404D405E03946CE
:103B00002020B0476D1C641EF9D52846BDE8F08121
:103B10002DE9F041044600251E469046C80301D514
:103B2000302700E02027880404D505E041463846C8
:103B3000B0476D1C641EF9D52846BDE8F081000031
:103B400010B5044601E0FFF7D7FA14F8010B044959
:103B50000028F8D1BDE810400A20FFF7CDBA0000D8
:103B6000000000200102000000000000000001022F
:103B70000304060708090000000001020304020311
:103B80000405060708090A0B0C0D0E0F10100000A3
:103B9000B03B000800000020100000006C3200085C
:103BA000C03B000810000020800500007C320008A7
:103BB0000000000001000000100000000024F400DC
:04000005080000ED02
:00000001FF
