:020000040800F2
:100000000006002001010008393B0008052F000808
:10001000353B0008C106000835420008000000001A
:100020000000000000000000000000001D42000869
:10003000C50600080000000019420008214200081F
:100040001B0100081B0100081B0100081B01000820
:100050001B0100081B0100081B0100081B01000810
:100060001B0100081B0100081B0100081B01000800
:100070001B0100081B0100081B0100081B010008F0
:100080001B0100081B0100081B0100081B010008E0
:100090001B0100081B0100081B0100081B010008D0
:1000A0001B0100081B0100081B0100081B010008C0
:1000B000294200081B0100081B0100081B01000861
:1000C0001B0100081B0100081B0100081B010008A0
:1000D0001B0100081B0100081B0100081B01000890
:1000E0001B0100081B0100081B010008DFF80CD0F1
:1000F00000F058FA00480047B94400080006002004
:100100000648804706480047FEE7FEE7FEE7FEE7B1
:10011000FEE7FEE7FEE7FEE7FEE7FEE72542000812
:10012000ED000008F0B480EA0102D40F4200B2EB07
:10013000410F02D20246084611464A0042D0C30D82
:10014000DDB2C1F3C752AD1A202D35DAC1F3160165
:1001500041F4000204B15242C5F1200602FA06F150
:100160002A411044B3EBD05F23D0C4B1012DA0EBE2
:10017000C35009DCF0BC4FF0004202EAC352DBB2CC
:1001800000F5000000F083B9400000F1807000EB42
:10019000C350A0F1807040EAD170490009E04908DD
:1001A00041EAC071A0EBC35000F50000400800EB2D
:1001B000C350F0BC00F062B96142012202EB410180
:1001C000001BF6E7F0BC704781F00041AAE780F021
:1001D0000040A7E780EA010210B502F000434000AA
:1001E00022D04A001FD0010E01EB1261C0F356006D
:1001F000C2F3560240F4000042F40002A0FB0220C9
:1002000000047F39140400D0401C50EA124001D48D
:100210004000491EC2B20C0604EBD010401C40083E
:10022000802A02D003E0002010BD20F00100002948
:1002300000DA0020184310BD30B480EA010202F059
:10024000004530F0004221F0004013D090B1C30DC2
:10025000D40DC2F31601C0F31600E41A41F40001F4
:1002600040F400027D34914201D3641C00E0490057
:10027000002C02DA30BC002070474FF4000000234D
:10028000914201D3891A034340084FEA4101F7D153
:1002900051B1914202D14FF0004105E002D24FF03E
:1002A000010101E06FF0010103EBC450284430BCB0
:1002B00000F0E4B82DE9FE4F81EA030404F00044A5
:1002C00021F0004100944FF0000B23F0004350EA6E
:1002D00001045ED052EA03045BD0C3F30A54C1F3B5
:1002E0000A552C44A4F2F3340194A0FB0254C1F348
:1002F000130141F48011C3F3130343F4801301FB92
:10030000024400FB034E840A970A44EA815447EAF8
:100310008357A4FB076802958D0A05FB07854FEA02
:10032000932C04FB0C542705029D4FEA065847EA1C
:100330001637B5EB08056EEB070C870E920E47EAF1
:10034000811742EA8312A7FB0201B6EB0B0164EBB3
:1003500000042B0D43EA0C335E1844EB1C50DA46C4
:100360005146E7FB0201C5F313044FEA0B3343EA9E
:1003700014534FEA0432019C43EA0603A4F10C042F
:100380000294009CCDE900B400F0BEF803B0BDE8D3
:10039000F08F00200146F9E7002801DBC0F10040A2
:1003A000002901DBC1F10041814201D801207047E1
:1003B00000207047002801DBC0F10040002901DB6C
:1003C000C1F10041814201D30120704700207047F4
:1003D000C10F80EAE0700844CA079623002100F0AC
:1003E00056B896230022114600F051B800F00042A2
:1003F00020F00040C10DC0F3160040F400007F293A
:1004000001DA00207047962903DCC1F19601C8404B
:1004100001E096398840002AF4D04042704700F04D
:10042000004230F000400AD0C10D01F56071C0F308
:10043000160042EA0151C2084007114370470020EC
:100440000146704701F0004330B421F0004150EA0A
:10045000010206D00A0DA2F56072C1F31301002A51
:1004600002DC30BC00207047440F44EAC104C100E4
:10047000E01830BC00EBC250AFF300800029A8BFE9
:100480007047401C490008BF20F00100704710B4BD
:10049000B0FA80FC00FA0CF050EA010404BF10BC72
:1004A000704749B1CCF1200421FA04F411FA0CF19F
:1004B00018BF012121430843A3EB0C01CB1D4FEAD8
:1004C00000614FEA102042BF002010BC704700EBD3
:1004D000C35010440029A4BF10BC7047401C490001
:1004E00008BF20F0010010BC704710B5141E73F156
:1004F000000408DA401C41F1000192185B411A43E4
:1005000001D120F0010010BD2DE9F04D92469B462F
:1005100011B1B1FA81F202E0B0FA80F220329046D5
:1005200000F052F804460F4640EA0A0041EA0B0187
:1005300053465A46084313D0114653EA010019D0D6
:10054000C8F14002504600F04EF805460E465046AF
:100550005946424600F038F8084305D0012004E02F
:1005600020463946BDE8F08D0020054346EAE07696
:100570002C4337430A986305E40AA0EB08000022E5
:10058000FD0A44EA47540A3002D500200146E9E753
:10059000010510196941DDE9084500196941BDE807
:1005A000F04DA2E7064C074D06E0E06840F001037D
:1005B00094E8070098471034AC42F6D3FFF79AFD51
:1005C000E86D0008086E0008202A04DB203A00FAD3
:1005D00002F1002070479140C2F1200320FA03F39A
:1005E000194390407047202A04DB203A21FA02F098
:1005F0000021704721FA02F3D040C2F1200291405D
:100600000843194670470000B0B582B00446002088
:10061000019021688A68D2074FD1886840F00100B4
:10062000886040F22800C2F2000000684DF6836145
:10063000C4F21B31A0FB0101880C01900198A0B10C
:10064000019801380190019878B101980138019022
:10065000019850B1019801380190019828B1019892
:100660000138019001980028EAD100F0ADFC216822
:100670008968C9071CD1054603E000BF8068C00730
:100680001AD100F0A1FC411B20680329F6D3816830
:10069000C907F3D1A06A40F01000A062E06A40F000
:1006A0000100E062002084F82400012002B0B0BD07
:1006B000002002B0B0BD00BF002002B0B0BD0000FD
:1006C000FEE7000070470000EFF3108072B600BF35
:1006D000FEE7000010B581B00022009290F82420BF
:1006E000012A03D10221084601B010BD4B68012246
:1006F000062B80F8242017D8D0F800C003EB830322
:100700005A1F1F23DCF834E003FA02F40B682EEAC8
:10071000040403FA02F22243CCF83420092B03EB41
:10072000430219D936E000BFD0F800C00C2B03EB10
:1007300083021DD8233A1F23DCF830E003FA02F4C9
:100740000B682EEA040403FA02F22243CCF83020AC
:10075000092B03EB43021DD8DCF81030072489680D
:100760009440A34391401943CCF81010002130E08D
:10077000413A1F23DCF82CE003FA02F40B682EEA5E
:10078000040403FA02F22243CCF82C20092B03EBD9
:100790004302E1D9DCF80CE01E3A07248968944052
:1007A0002EEA0404914023F001022143102ACCF8E0
:1007B0000C100DD142F20841C4F20101A1F108026E
:1007C00094450DD0816A41F020018162012100E051
:1007D0000021002280F82420084601B010BD00BF8F
:1007E0000A68120230D40A68102B42F400020A6030
:1007F0002CD140F22801C2F2000109684DF6836253
:10080000C4F21B32A1FB0212910C01EB81014900E1
:1008100000910099E1B10099013900910099C9B1A5
:100820000099013900910099B1B100990139009105
:10083000009999B1009901390091009900294FF070
:100840000001E8D1C5E700BF0021C2E70021C0E7F1
:100850000021BEE70021BCE70021BAE70021B8E78C
:100860000068C06C70470000B0B5002800F0A88098
:100870000446806A20B121688868C0070BD114E063
:100880000020E06284F82400204600F09BF82168F4
:100890008868C00709D0886820F00100886000F0EF
:1008A00093FB21688A68D20726D1A06AC0063AD491
:1008B000A06A41F2021290430230A062E069D4E9DA
:1008C000013240EA030C531EB3FA83F35D09134669
:1008D000B2F5807F18BF2B02207D257B01284CEAD2
:1008E000450030D135B3A56A45F02005A562E56A1B
:1008F00045F00105E56226E0054602E08868C0078C
:10090000D3D000F061FB401B21680328F6D3886830
:10091000C007F3D0A06A40F01000A062E06A40F087
:100920000100E062A06AA06A40F01000A06201200D
:10093000B0BD00BFD4F818C04EF60005CFF6FF7565
:1009400005EB4C352B434D68B2F5807F25F46945A6
:1009500043EA05034B608B684FF2FD75CFF6E175F6
:1009600003EA050343EA00038B6001D0012A07D1A3
:1009700022690023CFF6F07303EB025201E000BFBF
:100980000022CB6A23F470031A43CA62896840F6D6
:10099000FE62CFF61F721140814207D10020E06253
:1009A000A16A012262F30101A162B0BDA06A40F018
:1009B000100020F00200A062E06A40F00100E06256
:1009C0000120B0BD80B586B0014640F60000C4F2FB
:1009D0000100096800F5E05291424FF00001CDE9B5
:1009E000041101D006B080BD41F21801C4F2020129
:1009F0000A6842F400720A600A6802F40072019206
:100A0000019A0A6842F004020A60096801F00401D0
:100A100001910199022102910321039102A900F0A1
:100A2000B1F906B080BD0000F0B581B000270D46D9
:100A30000446009700F0C8FA21688A68D20543D4BA
:100A400006464868C00503D4C86A10F4700F45D044
:100A500040F22800C2F200000768022000F09EFF6A
:100A6000216844F624130A69B7FBF0F0C2F29243FE
:100A70001A4206D1CA6844F62413C0F292031A42FD
:100A80005ED00A6942F29243C1F249231A4207D169
:100A9000CA6842F29243C0F249031A4200F0C08091
:100AA0000A6949F24923C0F224031A424FF0FC02BA
:100AB00057D1CF681F4208BF5422009B02FB00F7AA
:100AC000BB4253D3C3E000BFA06A40F02000A06245
:100AD00084F82470012001B0F0BD00BF08688007D1
:100AE00000F1B580681C00F0A880FDB90868800797
:100AF00072D50868800700F1AA80086880076BD566
:100B00000868800700F1A3800868800764D508683A
:100B1000800700F19C80086880075DD50868800721
:100B2000E4D594E00868800700F1918000F04CFA69
:100B3000801B2168A842F5D908688007F2D44BE0F1
:100B40000A6942F29243C1F249231A424FF0290244
:100B500007D1CB6842F29247C0F249073B4208BF37
:100B60001422009B02FB00F7BB4270D2681C4FD0DE
:100B700055BB0098B8422FD30098013000900098E0
:100B8000B84264D20098B84226D300980130009051
:100B90000098B8425BD20098B8421DD3009801304B
:100BA00000900098B84252D20098B84214D30098EE
:100BB000013000900098B842DBD348E00098013043
:100BC00000900098B84233D200F0FEF9801BA84292
:100BD000F4D90098B842F1D2A06A40F00400A062B3
:100BE000002084F82400032001B0F0BD00980130FB
:100BF00000900098B8422AD20098013000900098E6
:100C0000B84224D20098013000900098B8421ED219
:100C10000098013000900098B842E7D317E000BF79
:100C20005422009B02FB00F7BB429FD30FE000BFA2
:100C300021680CE00868800709D40868800706D49A
:100C4000086880075CBF08685FEA8070F2D56FF0C3
:100C500012000860A06A40F40070A062886800F486
:100C60006020B0F5602F01D1207B18B1002001B0C9
:100C7000F0BD00BFA06A20F48070A062A06AC0042A
:100C8000F4D4A06A40F00100A062002001B0F0BDE1
:100C900010B5044690F82400012804BF022010BDBE
:100CA000012084F824002046FFF7AEFC20B100218B
:100CB00084F8241010BD00BF42F2044C2068A16AE1
:100CC000C4F2010C40F2013291430CF57F7201F540
:100CD00080719042A16233D0A16A21F48011A16297
:100CE0004168490504D5A16A012363F30D31A1626E
:100CF000A16A0023C9044FF0000144BFE16A21F05A
:100D00000601E1626FF0020184F82430016081681D
:100D100001F46021B1F5602F06D190420AD1DCF8D0
:100D2000001011F4702F05D0816841F480118160AA
:100D3000002010BD816841F4A0018160002010BD39
:100D4000DCF8001011F4702FC6D0A16A41F48011B4
:100D5000A162DCF800104905C5D4C9E7B0B5044666
:100D600000F032F9054640F20400C2F200000078BB
:100D7000611C18BF044400BF00F026F9401BA042CC
:100D8000FAD3B0BD2DE9F04F82B00E68002E00F00E
:100D9000038140F20C4C41F200424FF6FF7EC4F258
:100DA000010CC4F20102042700240123C1F2100E39
:100DB0004FF0000A4FF00009904208BF0327009748
:100DC00045E000BF012704F00C030F229A402BEAF4
:100DD000020207FA03F34FEA9A051A4346F8252060
:100DE000D1F804B040F20045C4F201055FEACB320D
:100DF0002A6854BF22EA080242EA08022A606A68A6
:100E00005FEA8B3354BF22EA080242EA08026A60B2
:100E10005FEACB23AA6854BF22EA080242EA08022A
:100E20005FEA8B23AA60DCF800204FF0010354BF77
:100E300022EA080242EA0802CCF800200E680AF111
:100E4000010A36FA0AF204F1040400F0A58003FA5C
:100E50000AF816EA080FF1D04E68764512DC122E19
:100E600056D8DFE806F0350B4549555555555555CB
:100E7000555555555555554D510000BFD1F80C905D
:100E800046E000BF4FF6FF72C1F2210296420FDC2E
:100E90000022C1F2110296421AD00022C1F21202BF
:100EA000964215D00022C1F22102964210D02FE0C6
:100EB0000022C1F2220296420AD00022C1F231027F
:100EC000964205D00022C1F23202964220D100BFE4
:100ED0008A684AB1012A14BFC0F81480C0F8108093
:100EE0004FF0080914E000BF4FF0040910E000BF04
:100EF000CA6802F108090BE04FF0000908E000BFE2
:100F0000CA6802F1040903E0CA6802F10C0900BFD3
:100F100022460646BAF1080F24BF203A0436376845
:100F20000F25954027EA050509FA02F22A433260A7
:100F3000CA79D2067FF582AF41F21803C4F20203E8
:100F40001A6842F001021A601A6802F00102019266
:100F5000019A40F20042C4F20102A2F57E762AF024
:100F6000030256F802B040F60002C4F201029042B9
:100F700010D040F60042C4F2010290423FF422AF8A
:100F800041F20002C4F20102009F904208BF022712
:100F900019E700BF002716E702B0BDE8F08F000098
:100FA0008068084018BF012070470000C26802EA4C
:100FB0000103914341EA034101617047002A08BFE0
:100FC000090401617047000040F2F810C2F200000D
:100FD0000068704770B5B8B3044690F83D0028B972
:100FE000002084F83C00204600F0BAFB242084F85E
:100FF0003D002068016821F001010160016841F4B1
:1010000000410160016821F40041016000F0A4FE8C
:1010100048F28041C0F21E0140F60013D4F804E00B
:1010200088424FF00001C0F23D0348F2A16C4FF03E
:10103000000238BF01219842C0F2010C38BF0122E2
:10104000E64538BF0A460AB1012070BD4DF68361FE
:10105000C4F21B31A0FB01122168950C4B684FF4C0
:10106000967623F03F0343EA9243754344F6D35602
:101070004B60C1F262060B6AA5FB0656B50923F068
:101080003F03E64538BF950C6A1C1A430A62CA69D9
:1010900048F2A0664CF6FF73C0F20106B64522EA9C
:1010A00003020BD801384FEA4E03B0FBF3F00130D6
:1010B0006FF31F30042898BF04201EE0A368013896
:1010C00063B119230EFB03F3B0FBF3F001306FF3B0
:1010D0001F3078B100F5804008E000BF0EEB4E03F2
:1010E000B0FBF3F001306FF31F3028B100F5004082
:1010F00003E000BF012000E001201043C861086840
:10110000D4E9072320F0C000104318430860886822
:1011100048F2FF3204F10C0690434CCE18431043C2
:10112000A5698860C86820F0FF0030432843C86084
:10113000086840F00100086000202021206484F845
:101140003D10206384F83E0070BD00002DE9F04F93
:1011500085B0044600201E4617460D460490FFF752
:1011600033FF94F83D10202923D1804620688169FF
:10117000890719D5FFF728FFA0EB08001928F5D932
:1011800000202021206384F83D1084F83E00206C6C
:1011900004F13C0940F0200020640220002189F87D
:1011A000001005B0BDE8F08FA14619F83C1F0129D9
:1011B00004D1022005B0BDE8F08F00BF012289F8FC
:1011C00000200368DDE90F1A0E9ADB0703D10368DC
:1011D00043F001030360036823F4006303602220EB
:1011E00084F83D00402084F83E00002020646262C4
:1011F0006185608D294620850020CFF6FF70E06272
:1012000020463A463346CDF800A0CDF8048001F0E0
:101210007BFE18B1012005B0BDE8F08F208D0228BB
:1012200010D0012824D0002838D100200390206855
:1012300041690391816903910399016841F4007147
:10124000016037E02068016841F400610160EFF35C
:10125000108072B600200390206841690391816973
:1012600003910399016821F48061016062B621E075
:101270002068016821F480610160EFF3108072B68C
:1012800000200390206841690391816903910399CB
:10129000016841F40071016062B60BE020680168EA
:1012A00041F48061016000210391416903918069EB
:1012B00003900398208D002800F0238140F2280B32
:1012C0004BF289570AF10105C2F2000BC1F2F8474F
:1012D000232680B2032819D8022845D001286FD1CF
:1012E000BAF1000F00F0FA802068014651F8142F7F
:1012F000520600F1F7800868C00600F12F81FFF761
:1013000063FEA0EB08005045EED91CE1BAF1000FD6
:1013100012D000BF2068014651F8142F520610D495
:101320000868C00600F11A81FFF74EFEA0EB080026
:101330005045EFD907E100BF20684169490640F1F7
:10134000FB800069616A0870606A2268411C208D18
:10135000616201382085638D013B638553695B07BA
:1013600040F1CC801069BFE020684169490711D481
:10137000002D00F09380BAF1000F00F0E280FFF73B
:1013800023FEA0EB0800504500F2DD802068406994
:101390004007F4D5EFF3108072B62068616A0268E6
:1013A00042F40072026000690870606A218D0130A9
:1013B0006062481E2085608D0138608562B668E0F5
:1013C00020684169490710D4002D77D0BAF1000F89
:1013D00000F0B780FFF7F8FDA0EB0800504500F2E1
:1013E000B280206841694907F4D5016821F4806121
:1013F0000160EFF3108072B62068616A00690870BE
:10140000606A218D0130013960622185618D013969
:101410006185DBF80010C908A1FB0712110A7143AE
:1014200004910499013904910499002976D0216826
:101430004A6952071DD4049901390491049900297D
:101440006CD021684A69520713D404990139049178
:101450000499002962D021684A69520709D4049985
:10146000013904910499002958D021684A6952072A
:10147000D7D50A6842F400720A6009690170606A8F
:10148000218D01306062481E2085608D01386085A5
:1014900062B62068616A006926E000BF41694907B9
:1014A0003FF578AF416949075CBF41695FEA417127
:1014B0003FF570AF41694907F0D56BE741694907CE
:1014C00093D4416949075CBF41695FEA41713FF5C7
:1014D0008CAF41694907F1D587E700BF20684169B2
:1014E000490629D50069616A0870606A218D01305A
:1014F0006062481E2085618D0139618501047FF499
:10150000E8AE202084F83D00002084F83E00002151
:1015100089F8001005B0BDE8F08F00BF0020202141
:10152000206384F83D1084F83E00206C40F02000D9
:10153000206462B61EE000BF50F8141FC9060146C1
:101540000CD4FFF741FD00202021206384F83D10DA
:1015500084F83E00206C40F020000AE06FF010009C
:10156000086000202021206384F83D1084F83E00AC
:10157000206C20640120002189F8001005B0BDE82E
:10158000F08F00002DE9F04383B0994616460F46D0
:101590000446FFF719FD94F83D1020291CD105469B
:1015A00020688169890713D5FFF70EFD401B1928B4
:1015B000F6D900202021206384F83D1084F83E00F5
:1015C000216C41F02001216484F83C0004E000BF5C
:1015D00094F83C10012903D1022003B0BDE8F08348
:1015E000012284F83C200368DDE90B180A9ADB0726
:1015F00003D1036843F001030360036823F400632D
:101600000360212084F83D00402084F83E00002043
:10161000206462626185608D394620850020CFF6A6
:10162000FF70E062204632464B46CDF800800195BF
:1016300001F0FAFD20B1012003B0BDE8F08300BF46
:10164000208D002850D0206808F10106014651F88D
:10165000142F12062CD49EB1B8F1000F5AD000BF3F
:10166000086840055ED4FFF7AFFC401B404556D8E4
:101670002068014651F8142F1206F1D518E000BF7A
:101680000A6852054ED40A68120611D40A68520537
:1016900048D40A6812060BD40A68520542D40A6874
:1016A000120605D40A6852053CD40A681206E7D52A
:1016B000626A114611F8013B0361238D6162591E74
:1016C0002185678D013F678547697F070AD50F042C
:1016D00008D051780161911C6162991E2185628D4B
:1016E000013A62850904B1D1204641462A4601F0FB
:1016F000D5FE38BB2068016841F4007101602020EC
:1017000084F83D00002084F83E0084F83C0003B0DB
:10171000BDE8F0830868400504D4FFF755FC20209D
:1017200004E000BF6FF480600860042000212022E4
:10173000216384F83D2084F83E10226C104320641D
:1017400084F83C10206C04287FF475AF2068016891
:1017500041F400710160012003B0BDE8F083000096
:1017600010B586B0006845F60001C4F20001884259
:101770004FF00001CDE90411CDE902112AD045F264
:101780000041C4F20001884248D141F21804C4F279
:101790000204206802A940F008002060206800F0E0
:1017A000080001900198C0200290122003900320AD
:1017B000059040F60040C4F20100FFF7E3FA6068CC
:1017C00040F400106060606800F40010019001981F
:1017D00006B010BD41F21804C4F20204206802A948
:1017E00040F008002060206800F008000190019897
:1017F0004FF440600290122003900320059040F6C1
:101800000040C4F20100FFF7BDFA606840F48000B8
:101810006060606800F480000190019806B010BD1F
:1018200040F2040040F2F811C2F20000C2F20001DE
:1018300000780A68104408607047000080B542F2E2
:101840000000C4F20200016841F0100101600320B1
:1018500000F08EF80F2000F005F800F027F80020C7
:1018600080BD000070B540F20406C2F2000640F2EE
:1018700028013278C2F200014FF47A730968B3FB91
:10188000F2F20446B1FBF2F1084600F0C1FE0F2C63
:101890004FF0010508D838B94FF0FF30214600223B
:1018A000002500F039F87460284670BD82B041F21E
:1018B0001800C4F202000168022241F00101016037
:1018C000016801F0010101910199416841F08051E5
:1018D0004160406800F08050009000980420C4F2FD
:1018E0000100016862F31A61016002B070470000F4
:1018F000002848BF7047C1B200F01F00012202FA61
:1019000000F04EF20012CEF2000242EAD10121F0C4
:10191000030108607047000010B54EF60C5CCEF273
:10192000000CDCF80030C3F3022E8EF00704042C08
:1019300028BF0424BEF103034FF0FF3E0EFA04F467
:1019400038BF0023A14399400EFA03F39A43114391
:1019500000F00F0200F160430901043A03F564430B
:101960006244002848BF02F10C03197010BD00004A
:101970004EF60C51CEF200010A684FF6FF031A40F2
:1019800060F30A2242F0806040F0FD70086070470A
:101990002020C4F20E2001210160704780B501288B
:1019A00018D0022836D0102832D141F20401C4F2F6
:1019B00002010A6851F8040CC00129D5C2F3834022
:1019C0002DA3185CD2033DD440F60012C0F23D02B4
:1019D000504343E041F20400C4F20200C16940F206
:1019E00002320A40B2F5817F04BF4FF4004080BD4F
:1019F00001F44071B1F5407F1CD0B1F5007F07D1F3
:101A0000006A49F64041800701EAE07080BD00BFEE
:101A1000002080BD00F0B4F941F20401C4F20201DB
:101A200009680222C1F3813102EB4101B0FBF1F000
:101A300080BD00BF50F8040C4FF22441800301EA3E
:101A4000E07080BD0A6810A3C2F340429A5C41F284
:101A50000023C0F27A03B3FBF2F250430968490253
:101A600048BF80BD4AF6AB214000CAF6AA21A0FBC0
:101A70000101480880BD00BF0203040506070809EC
:101A80000A0B0C0D0E0F1010010200002DE9F041A1
:101A900082B00446007841F21C06C007C4F2020678
:101AA0004AD0306810F0805808D1306840F080503B
:101AB0003060306800F080500190019847F20007D4
:101AC000C4F200073868C00512D4386840F480704A
:101AD0003860FFF779FA05463868C00508D4FFF783
:101AE00073FA401B6428F7D9032002B0BDE8F081E7
:101AF000706810F4407012D0616801F4407188423F
:101B00000DD0706840F24042C4F24222012320F41A
:101B1000407113600023C007136071602AD17068A0
:101B2000616820F440700843B8F1000F706003D181
:101B3000306820F0805030602068810707D556F863
:101B4000181CA26821F44041114346F8181CC00635
:101B500004D4002002B0BDE8F08100BF56F8180C94
:101B6000E16820F48000084346F8180C002002B019
:101B7000BDE8F081FFF728FA054641F2883700BF3B
:101B800070688007CBD4FFF71FFA401BB8424FF0B4
:101B90000300F5D9EBE700002DE9F04381B0002800
:101BA00000F0858042F20008C4F202080446D8F82A
:101BB00000000D4600F0070088420CD2D8F8000063
:101BC00020F007002843C8F80000D8F8000000F013
:101BD0000700A8426BD1206841F204098107C4F2D2
:101BE000020917D5410705D5D9F8001041F4E06185
:101BF000C9F80010010705D5D9F8001041F460516B
:101C0000C9F80010D9F80010A26821F0F0011143C2
:101C1000C9F80010C00741D1D8F8000000F0070053
:101C2000A8420CD9D8F8000020F007002843C8F8D3
:101C30000000D8F8000000F00700A84237D1206863
:101C4000410707D5D9F80010E26821F4E06111439B
:101C5000C9F80010000708D5D9F80000216920F460
:101C6000605040EAC100C9F80000D9F8002002F035
:101C70000C00082841F20020C0F27A0050D146F64C
:101C8000D653C2F38341C0F60003595CD2033BD460
:101C900040F60010C0F23D00484341E06068022871
:101CA0000AD001282AD159F8041C890308D401203C
:101CB00001B0BDE8F08300BF59F8041C8901F6D5D6
:101CC000D9F8001021F003010843C9F80000FFF71C
:101CD0007BF9064641F28837D9F80000616800F0C8
:101CE0000C00B0EB810F97D0FFF76EF9801BB84264
:101CF000F2D9032001B0BDE8F08300BF59F8041CFD
:101D00008907D4D5DCE700BFD9F8002044F6D0130A
:101D1000C2F34042C0F600039A5C4843B0FBF2F0C5
:101D2000D9F8001044F6D212C1F30311C0F6000234
:101D3000515C40F2280220FA01F140F20800C2F2A0
:101D400000000068C2F200021160FFF78BFD002066
:101D500001B0BDE8F083000040F2280041F2040128
:101D6000C2F20000C4F202010068096844F6E212FF
:101D7000C1F30221C0F60002515CC8407047000068
:101D800040F2280041F20401C2F20000C4F2020154
:101D90000068096844F6E212C1F3C221C0F60002ED
:101DA000515CC840704700002DE9F04182B0002826
:101DB00068D00446007841F20006C007C4F202066B
:101DC00025D0706800F00C0004281BD0706800F06B
:101DD0000C00082802D17068C00313D46068002882
:101DE00000F06881B0F5A02F00F07C81B0F5803F55
:101DF00000F07C81306820F480303060306820F45E
:101E0000802076E13068800301D56068D0B3207807
:101E1000800718D5706810F00C0F07D0706800F0BC
:101E20000C0008286ED17068C0036BD4306880073E
:101E300002D52069012825D13068616920F0F800B9
:101E400040EAC1003060207800071FD420784007A6
:101E500032D4E56995B1706800F00C00082840F0B4
:101E60008F80012D0ED07068216A00F480328A4282
:101E700008D1616A00F47010884203D1002002B0DA
:101E8000BDE8F081012002B0BDE8F081A069002822
:101E900062D00020C4F242200121C0F88014FFF774
:101EA00093F80546706A800700F18C80FFF78CF884
:101EB000401B0228F6D92AE1F06910F0805808D1B9
:101EC000F06940F08050F061F06900F080500090BF
:101ED000009847F20007C4F200073868C00529D40B
:101EE000386840F480703860FFF76EF8054600BF30
:101EF0003868C0051ED4FFF767F8401B6428F7D97F
:101F000005E100BF2069002840F20000C4F2422031
:101F100000F0828001210160FFF756F8054600BFFE
:101F2000306880073FF588AFFFF74EF8401B022866
:101F3000F6D9ECE0E068002800F08080052800F089
:101F40009780012800F09880306A20F0010030620C
:101F5000306A20F0040092E00020C4F24220002108
:101F6000C0F88014FFF730F8054600BF706A80079C
:101F70007FF56CAFFFF728F8401B0228F6D9C6E0C2
:101F80000027C4F2422700203866FFF71DF8022D13
:101F900005460BD13068800140F1BE80FFF714F890
:101FA000401B02284FF00300F4D968E73068800135
:101FB0007FF564AFFFF708F8401B02284FF00300DD
:101FC000F4D95CE740F22800C2F20000006844F651
:101FD000D351C1F26201A0FB0101480A019000BF88
:101FE00000BF0198411E002801913FF42FAF00BFB0
:101FF0000198411E002801913FF428AF00BF0198CD
:10200000411E002801913FF421AF00BF0198411EFD
:1020100000280191E4D119E700210160FEF7D4FF07
:10202000054600BF306880077FF50DAFFEF7CCFF97
:10203000401B02284FF00300F4D920E7306A20F05B
:1020400001003062306A20F004003062FEF7BCFF0D
:10205000054641F2883700BF306A800720D5FEF779
:10206000B3FF401BB8424FF00300F5D907E700BFAC
:10207000306A40F004003062306A40F001003062A3
:10208000FEF7A2FF054641F2883700BF306A80079D
:1020900006D4FEF799FF401BB842F7D937E000BFDE
:1020A000B8F1000F7FF4D5AEF06920F08050F061F8
:1020B000CFE600BF306820F480303060306820F414
:1020C00080203060FEF780FF054600BF3068800347
:1020D0007FF59DAEFEF778FF401B64284FF00300AC
:1020E000F4D9CCE6306840F480203060306840F4A9
:1020F00080303060FEF768FF054600BF306880031F
:102100003FF585AEFEF760FF401B6428F6D903203B
:1021100002B0BDE8F08100BF206AB0F5803F05D174
:102120007168A26821F40031114371607168626ABC
:1021300021F4741111430843706001203866FEF7E2
:1021400043FF0446306880013FF598AEFEF73CFF40
:10215000001B02284FF00300F4D990E670B5002868
:102160006AD00446407C20B900202074204600F04C
:1021700073F8022060742068416821F00801416012
:10218000FEF722FF064600BF20684568FEF71CFFE9
:10219000290705460ED4A81BB0F57A7FF4D901258E
:1021A00004206074284670BDFEF70EFF401BB0F59A
:1021B0007A7FF4D8216848688006F5D5486846F6E5
:1021C0002C4240F0100048604868C4F2000220F041
:1021D00007004860A06818B1536823F001035360FA
:1021E000136823F46073184310606068421C06D1C2
:1021F00001200125FFF7D2FB50B3216801388A681E
:1022000022F00F0242EA10428A60CA6860F30F02AD
:10221000CA60486820F010004860FEF7D5FE054609
:1022200020684068800609D4FEF7CEFE401BB0F55A
:102230007A7FF5D9B3E700BF012070BD40F20110ED
:102240000025A4F80D000120E5736074284670BDD8
:1022500004206074284670BD80B582B0006842F6E4
:102260000001C4F20001884202D002B080BD00BF6C
:10227000FFF78EFB41F21C00C4F20200016841F03E
:10228000006101600068012100F000600190019888
:1022900040F23C40C4F24220016002B080BD000028
:1022A000F0B581B0044600284FF0010018BF0029A6
:1022B00002D101B0F0BD00BF207C01284FF0020028
:1022C000F7D0012323746074CB78BAB1180900EBFE
:1022D000800003F00F0202EB400348788A78070978
:1022E00007EB870700F00F0000EB4707100900EB32
:1022F000800002F00F0202EB400001E04F78887886
:10230000022FDAB2E3736773A0730FD817237B43EE
:1023100048F63967C3F6E307A3FB0737C7F3470C53
:1023200002F2CF7340F2D47E0CE000BF47F2D91620
:10233000FFB2C0F21406774302F5FA634FEAD74CB6
:1023400040F2D27EC0B210449D0841F27B477044F7
:102350006F431D0940F63E2600EB93007543A0EB4A
:10236000574000EB1540604482B242F293435A4317
:10237000A0EB12439BB25B0803EB12429208A2EB64
:10238000C20210442268207308709169D069936971
:10239000002683EA01073F041CBFD069194680B2BA
:1023A00040EA014045F69071C0F2010188421BD31A
:1023B00044F20751CCF22E21A0FB0112110C40F285
:1023C000A3225143A0EBC117FEF7FEFD054600BF57
:1023D0002068416889060DD4FEF7F6FD401BB0F574
:1023E0007A7FF5D920E000BF0121002061742674B6
:1023F00001B0F0BD416841F010014160390C8161CC
:10240000B9B2C161416821F010014160FEF7DCFD05
:10241000054600BF2068416889060BD4FEF7D4FD4D
:10242000401BB0F57A7FF5D9012004216174267430
:1024300001B0F0BD016A406A80B240EA0140B84292
:1024400030D200F5803000F5A347FEF7BDFD05460C
:1024500020684168890607D4FEF7B6FD401BB0F539
:102460007A7FF5D9E0E700BF416841F01001416093
:10247000390C0162B9B24162416821F0100141603A
:10248000FEF7A2FD05462068406880060AD4FEF7E4
:102490009BFD411B0120B1F57A7F4FF00401F2D979
:1024A000A4E700BF002001216174267401B0F0BDD3
:1024B00070B5044600284FF0010018BF002901D173
:1024C00070BD00BF207C01284FF0020008BF70BD26
:1024D000012323746074087802B3020902EB8202BC
:1024E00000F00F0000EB4200C0B24FF461625043B5
:1024F0004A788978130903EB830302F00F0202EB99
:102500004302D2B2C2EB021200EB82000A0902EBD4
:10251000820201F00F0101EB420108E04FF4616219
:1025200050434A788978C2EB021200EB8200C9B2AC
:102530004618FEF749FD054620684168890607D41C
:10254000FEF742FD401BB0F57A7FF5D91AE000BFD7
:10255000416841F010014160310C8161B1B2C1614B
:10256000416821F010014160FEF72EFD054600BFD5
:102570002068416889060BD4FEF726FD401BB0F5A4
:102580007A7FF5D90120042161740021217470BD86
:10259000416821F005014160016A406A80B240EA69
:1025A0000140B0422ED200F5803000F5A346FEF780
:1025B0000BFD054620684168890607D4FEF704FD37
:1025C000401BB0F57A7FF5D9DCE700BF416841F0E8
:1025D00010014160310C0162B1B24162416821F0E9
:1025E00010014160FEF7F0FC054600BF206840681E
:1025F000800607D4FEF7E8FC401BB0F57A7FF5D9DA
:10260000C0E700BF0020012161740021217470BD6A
:10261000411E0020B0EB116F1CBF012070474EF22D
:102620001002CEF2000251604EF62351CEF20001AC
:10263000F0230B7007219060116070477047000015
:102640007047000010B590F83C20012A4FF00202BC
:1026500033D080F83D200268D2F804E0D2F808C0F8
:102660000C682EF07003234340F2FF74C4F20004A0
:10267000A24253600ADCB2F1804F13D040F2004313
:10268000C4F200039A420DD011E000BF42F60043AD
:10269000C4F201039A4205D040F60003C4F20003DD
:1026A0009A4204D149682CF08003194391600121BA
:1026B000002280F83D1080F83C20104610BD00003C
:1026C000002804BF0120704710B5044690F83D0073
:1026D00028B9002084F83C00204600F067F802206A
:1026E00084F83D00206840F2FF730268C4F20003E2
:1026F00042F6004C9842C4F2010C15DCB0F1804F58
:102700001AD040F20041C4F20001884214D098422D
:1027100018DCB0F1804F1DD040F20041C4F200013E
:10272000884217D01AE000BF604505D040F600018E
:10273000C4F200018842EAD1A16822F070020A4383
:102740009842E6DD604505D040F60001C4F2000184
:10275000884203D1216922F440720A43A36922F01E
:102760008001D4F804E0E268194360450160C26268
:10277000C0F828E002D16169CCF830100121416134
:10278000002084F8461084F83E1084F83F1084F846
:10279000401084F8411084F8421084F8431084F803
:1027A000441084F8451084F83D1010BD80B582B007
:1027B0000068B0F1804F15D042F60041C4F201012B
:1027C00088420CD141F21800C4F20200016841F4C1
:1027D00000610160006800F400600190019802B09F
:1027E00080BD00BF41F21800C4F20200416800221F
:1027F00041F0010141604068002100F001000090BB
:1028000000981C20FFF788F81C2002B0BDE880402B
:10281000FFF76EB890F83D1001291CBF01207047EA
:10282000022180F83D10006840F2FF72C168C4F2D6
:102830000002904241F00101C16009DCB0F1804F1B
:1028400012D040F20041C4F2000188420CD012E0E4
:1028500042F60041C4F20101884205D040F6000171
:10286000C4F20001884206D1816801F007010629FF
:1028700004BF00207047016841F0010101600020A1
:102880007047000080B590F83C20012A4FF002020A
:1028900000F0BF8080F83D20D0F800C04FF677727E
:1028A000DCF8083023EA0202CCF808200B683F2B42
:1028B0001CDD5F2B20DD602B50D0B3F5005F6DD0A9
:1028C000702B40F0A080D1E901E3C968DCF8082052
:1028D00043EA0E0322F47F4243EA01211143CCF87C
:1028E0000810DCF8081041F077018AE01F2B29DC82
:1028F00063B3102B2AD086E0402B63D0502B40F0DE
:102900008280D1F804E0C968DCF82030DCF82020AF
:1029100022F00102CCF82020DCF8182022F0F0028E
:1029200042EA011123F00A0242EA0E02CCF8181022
:10293000CCF82020DCF8081041F0570121F02001EC
:102940005FE000BF202B01D0302B5CD1DCF80810F9
:1029500021F07001194341F0070152E0D1F804E081
:10296000C968DCF8203023F01003CCF82030DCF804
:102970001830DCF8202023F4704322F0A00243EA50
:10298000013142EA0E12CCF81810CCF82020DCF805
:10299000081041F0670121F0100132E0D1E901E3B4
:1029A000C968DCF8082043EA0E0322F47F4243EAB8
:1029B00001211143CCF80810DCF8081041F48041E3
:1029C0001FE000BFD1F804E0C968DCF82030DCF873
:1029D000202022F00102CCF82020DCF8182022F080
:1029E000F00242EA011123F00A0242EA0E02CCF898
:1029F0001810CCF82020DCF8081041F0470121F035
:102A00003001CCF808100121002280F83D1080F838
:102A10003C20104680BD00007047000010B50168E2
:102A200004460869800744BFC8685FEA807039D4EB
:102A30000869400744BFC8685FEA40703ED408692F
:102A4000000744BFC8685FEA007045D40869C00643
:102A500044BFC8685FEAC0604AD40869C0071CBFA9
:102A6000C8685FEAC07051D10869000644BFC868F1
:102A70005FEA006052D40869400644BFC8685FEA54
:102A8000406053D40869800646BFC8685FEA80602A
:102A900010BD6FF0200220460A61BDE81040FFF72C
:102AA000CFBD00BF6FF00200086101202077886968
:102AB000800743D02046FFF7AFFF45E06FF00400EA
:102AC000086102202077886910F4407F40D02046BA
:102AD000FFF7A2FF42E000BF6FF00800086104208A
:102AE0002077C86980073DD02046FFF795FF3FE07B
:102AF0006FF01000086108202077C86910F4407F4B
:102B00003AD02046FFF788FF3CE000BF6FF001009D
:102B10000861204600F03EF82168A5E76FF08000CC
:102B200008612046FFF78AFD2168A4E76FF04000A6
:102B30000861204600F064F82168A3E7204600F011
:102B400025F8204600F024F82168002020776FE760
:102B5000204600F01BF8204600F01AF821680020FB
:102B600020776CE7204600F011F8204600F010F8BE
:102B700021680020207769E7204600F007F820460A
:102B800000F006F821680020207766E77047000013
:102B90007047000010B540F22411C2F20001044653
:102BA00000680968884210D140F2300CC2F2000C73
:102BB000BCF8002041F28831013293B28B42ACF86C
:102BC000002002D100F0BAFF206840F26C11C2F27E
:102BD00000010968884218BF10BD40F23000C2F2FF
:102BE0000000418844F6206301318AB29A42418054
:102BF00004D1BDE8104000F0A1BF00BF10BD00002F
:102C000070470000002804BF0120704710B504463B
:102C100090F83D0028B9002084F83C00204600F0E0
:102C200061F8242084F83D002068D4E90212C368CA
:102C300023F40053C360036923F440531A43026131
:102C4000D4E904231143C268194341F20C639A4347
:102C50001143C1604169A26921F44071114343F6F7
:102C60000002C4F201029042416103D0FFF774F800
:102C700002E000BFFFF784F8626819214843910021
:102C8000B0FBF1F048F21F51C5F2EB11A0FB01239C
:102C90005A094FF69C73C0F6FF7302FB0300322300
:102CA00003EB0010A0FB0101F02303EA511320689D
:102CB00003EB0212C1F3431111448160016921F455
:102CC00090410161416921F02A014161C16841F4EB
:102CD0000051C16000202021206484F83D1084F858
:102CE0003E1010BD70B586B040F60004C4F2010479
:102CF000006804F5405100268842049602D006B0D0
:102D000070BD00BF41F21800C4F20200016802ADBC
:102D100041F480410160016801F480410191019911
:102D2000016841F0040101600068294600F00400D8
:102D3000019001984FF4007002900220039003204C
:102D400005902046FEF71EF84FF48060CDE902069C
:102D5000204629460496FEF715F806B070BD00001F
:102D60002DE9F041044690F83D0020280ED10D4693
:102D700000294FF0010000F08E801646002A08BF9F
:102D8000BDE8F08194F83C00012803D10220BDE8A1
:102D9000F08100BF012084F83C0000202064212045
:102DA000984684F83D00FEF70FF9A684E684A168F2
:102DB0000646B1F5805F03D12069002800F0A080AD
:102DC0002F460025002084F83C00E08CE0B118F18B
:102DD00001001BD0B8F1000F60D120680BE000BFEC
:102DE00035F8021B00276FF35F214160E18C013948
:102DF000E184E18C51B3016809066DD5002FEFD055
:102E000017F8011BF1E700BF20681FE0206802E00F
:102E10000168090609D40168090606D40168090693
:102E20005CBF01685FEA0161F2D51FB117F8011BB1
:102E300005E000BF35F8021B00276FF35F214160FA
:102E4000E18C0139E184E18C0029E4D10168490673
:102E50001DD4B8F1000F3FD018F101010ED1016867
:102E6000490614D4016849065CBF01685FEA416104
:102E70000DD401684906F2D509E000BFFEF7A4F8B9
:102E8000811B2068414527D800684006F6D52020E0
:102E900084F83D000020BDE8F08100BF206800BF3D
:102EA0000168090606D4FEF78FF8811B20684145AA
:102EB000F6D911E017B117F8011B04E035F8021B31
:102EC00000276FF35F214160E18C0139E184E18CDF
:102ED0000029E5D1BAE700BFC16821F4D071C16013
:102EE000416921F001014161202084F83D0084F80E
:102EF0003E00002084F83C000320BDE8F08100BFC4
:102F000000275FE7FEE700002DE9F04383B00446A9
:102F1000006899460368904643F480620260026844
:102F20000B9D42F48072026042690A9ED2070F46EE
:102F30001DD1711C11D0002E00F03681FEF744F82F
:102F4000401BB04200F2328120684169C907F5D0C8
:102F50000DE000BF4169C90709D14169C90706D120
:102F60004169C90704BF41695FEAC171F2D007F046
:102F7000FE0707614169890738D44169721C01F471
:102F8000806111D049BB002E00F03A81FEF71CF899
:102F9000401BB04200F2368120684169890725D480
:102FA00041694905F2D518E0B9B9416989071DD4CD
:102FB0004169490511D44169890717D44169490517
:102FC0000BD44169890711D44169490505D4416988
:102FD00089070BD441694905E7D5016841F40071BF
:102FE00001606FF48061416104200CE100210291D5
:102FF000014651F8142F02924A680292029A0A6816
:10300000120620D4002E00F0AB80721C51D10A6849
:10301000520500F1AD800A68120614D40A68520500
:1030200000F1A6800A6812060DD40A68520500F164
:103030009F800A68120606D40A68520500F198803B
:103040000A681206E3D5B9F1010F45D04FEA1821FD
:103050000161014651F8142F12063DD4002E00F0F4
:103060007F80721C2AD10A68520500F181800A68AB
:10307000120631D40A6852057AD40A6812062BD493
:103080000A68520574D40A68120625D40A685205E3
:103090006ED40A681206E6D51EE000BFFDF794FF65
:1030A000401BB04261D82068014651F8142F120627
:1030B000C9D408684005F1D55AE000BF086840054A
:1030C00056D4FDF781FF401BB0424ED82068014620
:1030D00051F8142F1206F1D55FFA88F1016101460B
:1030E00051F8142F12061AD4D6B3721C33D10A68C1
:1030F00052053DD40A68120611D40A68520537D425
:103100000A6812060BD40A68520531D40A681206FE
:1031100005D40A6852052BD40A681206E7D501685F
:10312000002241F48071016020464FF001113346C6
:10313000009500F007FA002850D02068006844E0AD
:10314000FDF742FF401BB0420FD82068014651F8FE
:10315000142F1206E3D408684005F1D508E000BF3B
:103160000868400504D4FDF72FFF202004E000BFCD
:103170006FF480600860042000212022216384F81D
:103180003D2084F83E10226C1043206484F83C10EB
:10319000206C042843D12068016841F4007101606B
:1031A000012003B0BDE8F083FDF70EFF00202021D1
:1031B000206384F83D1084F83E00216C41F020012A
:1031C0002164216884F83C000868C00544BF4FF4BE
:1031D00000702064032003B0BDE8F083206847F04E
:1031E000010101610221C0F20101204632462B4655
:1031F00000F050FA002818BF012003B0BDE8F083AA
:10320000FDF7E2FE202000212022216384F83D20EA
:1032100084F83E10226C1043206484F83C10012096
:1032200003B0BDE8F08300002DE9F04381B004460F
:10323000006890460268099D42F48072026042690B
:10324000089E9946D2070F461DD1711C11D0002E41
:1032500000F0D280FDF7B8FE401BB04200F2CE80F5
:1032600020684169C907F5D00DE000BF4169C90771
:1032700009D14169C90706D14169C90704BF41693C
:103280005FEAC171F2D007F0FE010161416989076F
:1032900038D44169721C01F4806111D049BB002E01
:1032A00000F0E880FDF790FE401BB04200F2E480A1
:1032B00020684169890725D441694905F2D518E09C
:1032C000B9B9416989071DD44169490511D44169DA
:1032D000890717D4416949050BD44169890711D47D
:1032E0004169490505D4416989070BD441694905FC
:1032F000E7D5016841F4007101606FF480614161BC
:103300000420BAE000210091014651F8142F0092E8
:103310004A680092009A0A6812061ED4002E00F035
:103320008580721C4DD10A68520500F187800A68B9
:10333000120612D40A68520500F180800A6812064B
:103340000BD40A68520579D40A68120605D40A68B3
:10335000520573D40A681206E5D5B9F1010F43D0BE
:103360004FEA18210161014651F8142F12063BD48F
:10337000002E5BD0721C29D10A6852055ED40A68FF
:10338000120631D40A68520558D40A6812062BD4A2
:103390000A68520552D40A68120625D40A685205F2
:1033A0004CD40A681206E7D51EE000BFFDF70CFEFC
:1033B000401BB0423FD82068014651F8142F120636
:1033C000CBD408684005F1D538E000BF0868400557
:1033D00034D4FDF7F9FD401BB0422CD820680146DB
:1033E00051F8142F1206F1D55FFA88F1016100201F
:1033F00001B0BDE8F08300BFFDF7E6FD002020210D
:10340000206384F83D1084F83E00216C41F02001D7
:103410002164216884F83C000868C00544BF4FF46B
:1034200000702064032001B0BDE8F0830868400507
:1034300004D4FDF7C9FD202004E000BF6FF48060D4
:103440000860042000212022216384F83D2084F8B4
:103450003E10226C1043206484F83C10206C042839
:1034600017D12068016841F400710160012001B0AA
:10347000BDE8F083FDF7A8FD202000212022216374
:1034800084F83D2084F83E10226C1043206484F8B8
:103490003C10012001B0BDE8F083000070B5036866
:1034A000044653F8140F400737D40E46F1B1701C90
:1034B00024D100BF1868400532D4186840072CD4C6
:1034C000186840052CD41868400726D418684005B1
:1034D00026D41868400720D41868400520D41868FE
:1034E00040074FF0000048BF70BDE3E71868400593
:1034F00016D4FDF769FD202016E000BF154600BF79
:10350000186840050CD4FDF75FFD401BB042F2D8AF
:10351000236853F8140F4007F2D5002070BD00BF98
:103520006FF480601860042000212022216384F859
:103530003D2084F83E10226C10432064012084F862
:103540003C1070BD2DE9F04105461446DDF81880A9
:1035500001F47F002A681E46B0F5803F8FB241D14A
:1035600050693840C01BB0FA80F04009A0427BD1BE
:10357000701C2DD0002E7BD0FDF726FDA0EB08009F
:10358000B04277D8286840693840C01BB0FA80F054
:103590004009A042F0D00020BDE8F08150693840D9
:1035A000C01BB0FA80F04009A0425DD1506938409C
:1035B000C01BB0FA80F04009A04255D15069384094
:1035C000C01BB0FA80F04009A0424FF000005FD16C
:1035D00050693840C01BB0FA80F04009A042DDD0ED
:1035E00042E000BF90693840C01BB0FA80F040094B
:1035F000A04239D1701C1FD0D6B300BFFDF7E4FC48
:10360000A0EB0800B04235D8286880693840C01B5C
:10361000B0FA80F04009A042F0D00020BDE8F0816F
:1036200090693840C01BB0FA80F04009A0424FF0CA
:10363000000018BFBDE8F08190693840C01BB0FAA7
:1036400080F04009A0420FD190693840C01BB0FA09
:1036500080F04009A04207D190693840C01BB0FA01
:1036600080F04009A042DBD00020BDE8F08100BF1F
:10367000FDF7AAFC00202021286385F83D1085F87D
:103680003E00296C41F02001296485F83C000120AE
:10369000BDE8F081F0B581B0044600681D4643697D
:1036A0008FB203EA0701B94202D1002001B0F0BD98
:1036B00041691646013201F480610FD059BB9EB3B7
:1036C000FDF782FC401BB04230D820684169394088
:1036D000B942EAD041694905F2D51CE0D9B941693E
:1036E0003940B942E1D04169490514D441693940B2
:1036F000B942DAD0416949050DD441693940B9422E
:10370000D3D04169490506D441693940B942CCD08A
:1037100041694905E3D5016841F4007101606FF426
:1037200080614161042002E0FDF74EFC2020002171
:103730002022216384F83D2084F83E10226C10433F
:10374000206484F83C10012001B0F0BDB0B584B015
:103750002020022140F23404CDE9011040F2BC00E7
:10376000C2F20004C2F200000021072201230094EB
:10377000FDF7ECFC60782178020241EA002084B277
:10378000204615B2FCF72DFE0146FCF7CBFC46F2B5
:103790000061CCF2D561FCF7C5FC0021C4F2C82160
:1037A000FCF74AFD42F2AC710022CCF2C8228C42F6
:1037B00098BF1046B5F1FF3FD8BF104604B0B0BD6A
:1037C00010B584B040F2380042F20041C2F200006D
:1037D000C4F2010100224FF4602301240273027538
:1037E000C361C0E9001282600461FDF73DF8002862
:1037F00018BFFCF769FF0620039040F23800C2F2C0
:10380000000001A9CDE90144FCF764FF002818BFBE
:10381000FCF75AFF04B010BD2DE9F04F85B041F21E
:103820001800C4F20200016840F6004441F01001A3
:1038300001600168C4F2010401F0100101910199D5
:103840000168002241F020010160016841F2100688
:1038500001F020010191019901684FF0000941F048
:1038600004010160016801F00401019101990168FE
:1038700041F008010160006841F2100100F0080009
:10388000019001982046FDF799FBA4F58065284634
:103890004FF4C05100224FF4C05AFDF78FFB204671
:1038A000282101220127FDF789FBCDE9016701AE3F
:1038B0004FF002084FF0030B20463146CDF80C8044
:1038C000CDF810B0FDF75EFA4FF46040CDE9010984
:1038D000204631460397FDF755FA4FF48070CDE945
:1038E0000109284631460397FDF74CFA2846314630
:1038F000CDE901A7CDE9038BFDF744FA2820CDE9F6
:10390000010720463146CDE9037BFDF73BFA05B0C0
:10391000BDE8F08F80B540F2680045F20041C2F288
:103920000000C4F2000148F2A06200234FF4804C72
:10393000C0F2010280E80E00C0E9033CC0E9053393
:10394000C0E90733FDF746FB002808BF80BDBDE88E
:103950008040FCF7B9BE000080B540F2BC0045F6DF
:103960000001C2F20000C4F2000148F2A06200238C
:103970004FF4804CC0F2010280E80E00C0E9033C25
:10398000C0E90533C0E90733FDF724FB002808BF71
:1039900080BDBDE88040FCF797BE000010B582B046
:1039A00040F20050C2F20730009040F2101042F690
:1039B0000001C2F20000C4F200014FF0FF32002407
:1039C00080E81600FEF7CAFB002818BFFCF77CFE53
:1039D0000820ADF8040040F21010C2F2000001A966
:1039E00001228DF80640FEF763FD002818BFFCF7A2
:1039F0006BFE40F21010C2F2000069460122FEF791
:103A00004FFC002818BFFCF75FFE02B010BD00009D
:103A100080B586B040F2241042F600420021C2F286
:103A20000000C4F20102472340F2E73C0591CDE9D2
:103A30000311CDE90011C0E90023C0E9021CC0E96F
:103A400004118161FEF73CFE002818BFFCF73CFE24
:103A50004FF48050029040F22410C2F2000002A9FC
:103A6000FEF710FF002818BFFCF72EFE40F22410CE
:103A7000C2F200006946FEF7E5FD002818BFFCF71A
:103A800023FE06B080BD000080B586B040F26C1009
:103A90000021C2F200004FF08042472340F2E73C91
:103AA0000591CDE90311CDE90011C0E90023C0E97A
:103AB000021C01618161FEF703FE002818BFFCF7BC
:103AC00003FE4FF48050029040F26C10C2F20000EE
:103AD00002A9FEF7D7FE002818BFFCF7F5FD40F25B
:103AE0006C10C2F200006946FEF7ACFD002818BF5A
:103AF000FCF7EAFD06B080BD80B540F2B41043F695
:103B00000001C2F20000C4F2010100234FF00C0CCE
:103B10004FF4165280E80E00C0E90333C0E905C334
:103B2000C361FFF76FF8002808BF80BDBDE8804083
:103B3000FCF7CABDFEE70000FEE700002DE9F04FEC
:103B400085B040F2680400254FF480760127C2F268
:103B500000040DF1120B0DF113084FF0000900BF26
:103B600009F1B0008DF8100004A8CDE90007204647
:103B70007821002201230296FDF704FD0DF11100CA
:103B8000CDE9000720467821002201238DF811504D
:103B90000296FDF7F7FC10208DF8120020467821E0
:103BA00000220123CDE900B70296FDF7EBFC4FF0B0
:103BB000000A00BF20467821402201238DF81350CF
:103BC000CDE900870296FDF7DDFC0AF101004FFA0E
:103BD00080FABAF1FF3FEDDCB9F1070F09F10109F5
:103BE000BED305B0BDE8F08F80B5C820FDF7B6F8AC
:103BF000BDE8804000F020BB2DE9F04F89B040B215
:103C00000D46A2F12001002820EAE0724FF01007D3
:103C100048BF0235A5F1500047EA121402F00F0721
:103C2000102BCEB240F03A8140F268088DF81800AF
:103C30004FF0010B06A8C2F200084FF48079CDE9DD
:103C4000000B4046782100220123CDF80890FDF7B3
:103C500099FC0DF11900CDE9000B404678210022B6
:103C600001238DF81940CDF80890FDF78BFC0DF17C
:103C70001A00CDE9000B40467821002201238DF87F
:103C80001A70CDF808904FF48079FDF77BFC44F66C
:103C900012413001C0F60001085C01EB06168DF8F8
:103CA0001B0005970DF11B07404678214022012398
:103CB000CDE9007BCDF80890FDF764FC7078317990
:103CC00096F802A0049496F8039003918DF81B00D7
:103CD00040467821402201234FF48074CDE9007BD7
:103CE0000294FDF74FFC40467821402201234FF417
:103CF00080748DF81BA0CDE9007B0294FDF742FC97
:103D000040467821402201238DF81B90CDE9007BAD
:103D10000294FDF737FC039878218DF81B0040468C
:103D200040220123CDE9007B0294FDF72BFC707942
:103D300078218DF81B00404640220123CDE9007B0D
:103D40000294FDF71FFCB07978218DF81B004046E6
:103D500040220123CDE9007B0294FDF713FCF079AA
:103D600078218DF81B00404640220123CDE9007BDD
:103D70000294FDF707FCA5F14F008DF81C0007A881
:103D8000CDE9000B40467821002201230294FDF783
:103D9000F9FB049878218DF81D000DF11D00CDE987
:103DA000000B4046002201230294FDF7EBFB05982F
:103DB00078218DF81E000DF11E00CDE9000B404664
:103DC000002201230294FDF7DDFB307A0DF11F057F
:103DD0008DF81F004046782140220123CDE9005B89
:103DE0000294FDF7CFFB707A78218DF81F004046D2
:103DF00040220123CDE9005B0294FDF7C3FBB07ABA
:103E000078218DF81F00404640220123CDE9005B58
:103E10000294FDF7B7FBF07A78218DF81F00404639
:103E200040220123CDE9005B0294FDF7ABFB307B20
:103E300078218DF81F00404640220123CDE9005B28
:103E40000294FDF79FFB707B78218DF81F004046A0
:103E500040220123CDE9005B02944FF48074FDF70A
:103E600091FBB07B78218DF81F0040464022012352
:103E7000CDE9005B02944FF48074FDF783FBF07B87
:103E8000CDE9005B8DF81F004046782140220123D8
:103E90000294FDF777FB09B0BDE8F08F40F2680BA4
:103EA0008DF820004FF0010A08A8C2F2000B4FF471
:103EB0008078CDE9000A5846782100220123CDF808
:103EC0000880FDF75FFB0DF12100CDE9000A58469F
:103ED0007821002201238DF82140CDF80880FDF7DC
:103EE00051FB0DF12200CDE9000A5846782100224D
:103EF00001238DF82270CDF80880FDF743FB44F6CE
:103F0000EA1106EB4600C0F6000111F8102001EBA3
:103F100040058DF823200DF12306584678214022D4
:103F20000123CDE9006ACDF80880FDF72BFB687806
:103F3000AF78EC7895F804908DF8230058467821F6
:103F400040220123CDE9006ACDF80880FDF71AFB75
:103F500058467821402201238DF82370CDE9006A6C
:103F6000CDF80880FDF70EFB58467821402201234A
:103F70008DF82340CDE9006ACDF80880FDF702FBFB
:103F800058467821402201238DF82390CDE9006A1C
:103F9000CDF80880FDF7F6FA687978218DF82300CE
:103FA000584640220123CDE9006ACDF80880FDF78C
:103FB000E9FA09B0BDE8F08F2DE9F04F87B0064669
:103FC000A1F1500040F268058DF81400012705A802
:103FD000C2F20005144604914FF4807ACDE900073F
:103FE0002846782100220123CDF808A0FDF7CAFA5F
:103FF000300900F110080DF11500CDE90007284641
:104000007821002201238DF81580CDF808A0FDF756
:10401000B9FA0DF1160006F00F0BCDE9000728469E
:104020007821002201238DF816B0CDF808A0FDF705
:10403000A9FA45F2F211C4EB0420C0F6000101EB2D
:1040400040064FF0FF340DF1170900BF30194078DA
:1040500078218DF81700284640220123CDE90097EA
:10406000CDF808A0FDF78EFA01341F2CEED104988C
:1040700040F268044F388DF818004FF0010A06A886
:10408000C2F200044FF48079CDE9000A204678217D
:1040900000220123CDF80890FDF774FA0DF1190004
:1040A000CDE9000A20467821002201238DF81980ED
:1040B000CDF80890FDF766FA0DF11A00CDE9000A77
:1040C00020467821002201238DF81AB0CDF80890FF
:1040D000FDF758FAFE250DF11B0700BF7019407857
:1040E00078218DF81B00204640220123CDE9007A7B
:1040F000CDF80890FDF746FA0135B5F58F7FEDD183
:1041000007B0BDE8F08F00002DE9F04F85B0002B1F
:10411000049103907CD00E981C464508981E009090
:1041200058421746591E4FF000085FFA80FB42F2D2
:10413000107900264FF0000A0291019212E000BFB0
:104140000126039940F0300205FB08110E9BC8B20E
:104150000499D2B2FFF750FD08F10108A0450AF119
:10416000010A55D06FEA0A00C0B2584502D10120B9
:104170002AE000BF00996FEA0800A1EB0801C9B26C
:10418000032900EB040101D2012009E001F0FC0247
:10419000002301200433DFB2974200FB09F0F9D17C
:1041A000019F11F003010FD0012903D100EB800022
:1041B000400009E04FF47A72424302294FF0640153
:1041C00008BF00FB01F21046B7FBF0F04CF6CD4102
:1041D000CCF6CC41A0FB0112D10801EB8101002EED
:1041E000A0EB4100ADD102994145AADD0028A7D13D
:1041F0000398049905FB08000E9BC0B22022FFF72C
:10420000FBFC002608F10108A0450AF1010AA9D12A
:1042100005B0BDE8F08F0000704700007047000057
:10422000FDF7FEBA7047000040F26C10C2F20000C9
:10423000FEF7F4BBFEE70000F0B583B040F268047F
:1042400040F20C07C2F200044FF480750126C2F25E
:1042500000072046782100220123CDE9007602954F
:10426000FDF790F9781CCDE9000620467821002260
:1042700001230295FDF786F9B81CCDE9000620461A
:104280007821002201230295FDF77CF9F81CCDE985
:10429000000620467821002201230295FDF772F9DD
:1042A000381DCDE900062046782100220123029521
:1042B000FDF768F9781DCDE9000620467821002237
:1042C00001230295FDF75EF9B81DCDE900062046F1
:1042D0007821002201230295FDF754F9F81DCDE95C
:1042E000000620467821002201230295FDF74AF9B5
:1042F00007F10800CDE900062046782100220123BD
:104300000295FDF73FF907F10900CDE900062046C7
:104310007821002201230295FDF734F907F10A0004
:10432000CDE9000620467821002201230295FDF701
:1043300029F907F10B00CDE900062046782100227B
:1043400001230295FDF71EF907F10C00CDE90006E7
:1043500020467821002201230295FDF713F907F189
:104360000D00CDE9000620467821002201230295A8
:10437000FDF708F907F10E00CDE900062046782187
:10438000002201230295FDF7FDF807F10F00CDE9AA
:10439000000620467821002201230295FDF7F2F85D
:1043A00007F11000CDE90006204678210022012304
:1043B0000295FDF7E7F807F11100CDE90006204668
:1043C0007821002201230295FDF7DCF807F11200A5
:1043D000CDE9000620467821002201230295FDF751
:1043E000D1F807F11300CDE900062046782100221C
:1043F00001230295FDF7C6F807F11400CDE9000688
:1044000020467821002201230295FDF7BBF807F131
:104410001500CDE9000620467821002201230295EF
:10442000FDF7B0F807F11600CDE900062046782127
:10443000002201230295FDF7A5F807F11700CDE949
:10444000000620467821002201230295FDF79AF804
:1044500007F11800CDE9000620467821002201234B
:104460000295FDF78FF807F11900CDE90006204607
:104470007821002201230295FDF784F807F11A0044
:10448000CDE9000620467821002201230295FDF7A0
:1044900079F803B0F0BD000080B582B0019040F221
:1044A000B410C2F2000001A901224FF6FF73FEF71B
:1044B00057FC019802B080BD98B0FDF7BFF9092004
:1044C00000240E904FF480300225CDE90F04CDE991
:1044D00015504FF4E010012117900EA81394CDE968
:1044E0001144089412911491FDF75EFC20B1EFF392
:1044F000108072B6FEE700BF0F20CDE909054FF42A
:104500008060CDE90C0409A802210B94FDF744FB5F
:1045100020B1EFF3108072B6FEE700BF03200590D4
:104520004FF4007006904FF40040079005A8FDF787
:10453000ADFA28B1EFF3108072B600BFFEE700BFFE
:1045400040F60044C4F20104FFF766F9FFF7D4FA1D
:10455000FFF736F9FFF7DEF9FFF75AFAFFF7FCF934
:10456000FFF71CFAFFF790FAFFF73EFBFFF7E6FABA
:1045700040F26C10C2F20000FEF74CF94FF0120945
:104580000027A4F580650FF2F83B0FF2E83604959A
:1045900009E000BF584600F009FAFFF7CFFA4FF4E0
:1045A0007A70FCF7DBFB28464FF48071FCF7F8FCCF
:1045B00020B117F00104EDD007E000BF3220FCF776
:1045C000CDFB013717F00104E4D0304600F0EEF9DE
:1045D0005FEA096018BF002CDFD0202000210022F4
:1045E000CDE90279FFF7E8FC302000210122FFF736
:1045F000E3FC402000210222FFF7DEFC50200021D6
:104600000322FFF7D9FC202002210422FFF7D4FC6B
:10461000302002210522FFF7CFFC40200221062294
:10462000FFF7CAFC502002210722FFF7C5FC00203B
:1046300004210822FFF7C0FC102004210922FFF703
:10464000BBFC202004210A22FFF7B6FC3020042105
:104650000B22FFF7B1FC402004213A221023FFF780
:10466000CBFA002006210822FFF7A6FC1020062125
:104670000922FFF7A1FC202006210C22FFF79CFC59
:10468000302006210D22FFF797FC402006213A2218
:104690001023FFF7B1FA40F23804C2F200042046BA
:1046A000FCF7F6FA20466421FCF7BEF92046FCF739
:1046B000D7F880B2FBF795FE4FF06651FBF78AFD05
:1046C000FBF7ADFE46F266634FF06632C4F20A03B2
:1046D000FBF7F0FDFBF7B6FE8046FBF787FEC4B2A2
:1046E0002046FBF775FE01464046FBF76DFD40F2A4
:1046F0000009C4F220194946FBF76CFD0546FBF79B
:1047000075FEC7B23846FBF763FE01462846FBF745
:104710005BFD4946FBF75EFDFBF768FE054648205A
:104720000421224602234FF0100BCDF800B0FFF712
:10473000EBFC582004212E221023FFF75DFA6020A5
:1047400004213A460123CDF800B0FFF7DDFCEAB2C0
:10475000682004210123CDF800B0FFF7D5FC7020BC
:10476000042156221023FFF747FAFEF7EFFF824697
:10477000FBF73CFE0446FBF72BFE01465046FBF7D9
:1047800023FD4946FBF726FDFBF730FE0546E2B266
:10479000482006210223CDF800B0FFF7B5FC5820D1
:1047A00006212E221023FFF727FA602006212A4631
:1047B00040F600440123C4F20104CDF800B0FFF735
:1047C000A3FC6820062143221023FFF715FA204698
:1047D0004FF40041FCF7E4FB30B1DDF80C90029F90
:1047E0000FF29C1B22E000BF3220FCF7B7FA40F624
:1047F0000040C4F201004FF48041FCF7D1FB58B1F6
:1048000040F60040C4F201004FF40051FCF7C8FB31
:104810000028E2D1FF2400E00124DDF80C90029F83
:1048200032200FF25C1BFCF799FAA14404984FF474
:104830008071FCF7B5FB01284AD140F60040C4F274
:1048400001004FF40041FCF7ABFB012840D140F6DA
:104850000040C4F201004FF48041FCF7A1FB0128A5
:1048600036D140F60040C4F201004FF40051FCF78D
:1048700097FB01282CD140F23003C2F200031988C3
:1048800040F22410C2F20000013100688AB241F205
:104890008835AA42198006D1FFF750F940F224105A
:1048A000C2F20000006840F26C11C2F20001096817
:1048B00088420DD140F23002C2F20002508844F624
:1048C0002063013081B29942508008BFFFF736F96A
:1048D00041F6B8614046C4F26501FBF76BFD78BB59
:1048E00040F26C1040F22411C2F20000C2F200014A
:1048F0000068096888420DD140F23002C2F200021D
:10490000108841F28833013081B29942108008BF8B
:10491000FFF714F940F23002C2F20002508844F668
:104920002063013081B29942508008BFFFF706F939
:1049300040F60040C4F2010008210122FCF73EFBD2
:1049400000215046C4F2F011FBF726FD80B9049D0A
:104950004FF4006128460122FCF730FBFA20FCF7F7
:10496000FDF928464FF40061FCF720FB17E600BF75
:10497000049D14E6506F7765723A204F4E21000077
:10498000506F7765723A204F4646210002E008C812
:10499000121F08C1002AFAD170477047002001E0B9
:1049A00001C1121F002AFBD17047000010B5044658
:1049B00001E0FFF771FD14F8010B04490028F8D15C
:1049C000BDE810400A20FFF767BD0000000000208E
:1049D00001020000000000000000010203040607BD
:1049E00008090000000001020304000000000000AC
:1049F0000000002F000000000700070000147F14D3
:104A00007F1400242A7F2A120062640813230036D0
:104A10004955225000000503000000001C224100FF
:104A2000000041221C000014083E08140008083E43
:104A30000808000000A0600000080808080800003E
:104A400060600000002010080402003E5149453E0D
:104A50000000427F4000004261514946002141452B
:104A60004B31001814127F10002745454539003C92
:104A70004A49493000017109050300364949493660
:104A800000064949291E000036360000000056364F
:104A90000000000814224100001414141414000033
:104AA0004122140800020151090600324959513EC1
:104AB000007C1211127C007F49494936003E414179
:104AC0004122007F4141221C007F49494941007F2A
:104AD00009090901003E4149497A007F0808087F19
:104AE0000000417F4100002040413F01007F081449
:104AF0002241007F40404040007F020C027F007F47
:104B00000408107F003E4141413E007F090909062B
:104B1000003E4151215E007F09192946004649495E
:104B200049310001017F0101003F4040403F001F2B
:104B30002040201F003F4038403F006314081463AA
:104B400000070870080700615149454300007F4194
:104B5000410000552A552A55000041417F000004BC
:104B600002010204004040404040000001020400F5
:104B7000002054545478007F48444438003844445A
:104B8000442000384444487F0038545454180008E6
:104B90007E0901020018A4A4A47C007F0804047804
:104BA0000000447D4000004080847D00007F10288C
:104BB00044000000417F4000007C04180478007C21
:104BC0000804047800384444443800FC24242418A1
:104BD0000018242418FC007C0804040800485454DD
:104BE000542000043F444020003C4040207C001CF6
:104BF0002040201C003C4030403C00442810284409
:104C0000001CA0A0A07C004464544C441414141450
:104C1000141400000000000000000000000000006C
:104C20000000000000F80000000000000033300029
:104C3000000000100C06100C060000000000000030
:104C4000000040C07840C0784000043F04043F04A6
:104C50000400007088FC08300000001820FF211EAE
:104C60000000F008F000E018000000211C031E21E5
:104C70001E0000F00888700000001E212324192760
:104C8000211010160E0000000000000000000000BF
:104C90000000000000E018040200000000071820D7
:104CA000400000020418E000000000402018070047
:104CB0000000404080F0804040000202010F0102ED
:104CC0000200000000F0000000000101011F0101CE
:104CD0000100000000000000000080B07000000033
:104CE00000000000000000000000000101010101BF
:104CF0000101000000000000000000303000000052
:104D00000000000000008060180400601806010028
:104D1000000000E010080810E000000F1020201034
:104D20000F00001010F8000000000020203F20209D
:104D30000000007008080888700000302824222134
:104D400030000030088888483000001820202011EA
:104D50000E000000C02010F8000000070424243FCB
:104D6000240000F808888808080000192120201174
:104D70000E0000E0108888180000000F112020119C
:104D80000E0000380808C83808000000003F000086
:104D900000000070880808887000001C2221212271
:104DA0001C0000E010080810E00000003122221171
:104DB0000F00000000C0C000000000000030300004
:104DC0000000000000800000000000008060000083
:104DD00000000000804020100800000102040810BC
:104DE00020004040404040404000040404040404CB
:104DF0000400000810204080000000201008040279
:104E00000100007048080808F0000000003036017A
:104E10000000C030C828E810E00007182724231439
:104E20000B000000C038E0000000203C23020227F5
:104E3000382008F8888888700000203F2020201142
:104E40000E00C0300808080838000718202020107D
:104E5000080008F808080810E000203F2020201073
:104E60000F0008F88888E8081000203F2020232041
:104E7000180008F88888E8081000203F2000030088
:104E80000000C03008080838000007182020221E43
:104E9000020008F808000008F808203F210101215D
:104EA0003F20000808F8080800000020203F2020CC
:104EB000000000000808F8080800C08080807F001B
:104EC000000008F888C028180800203F2001263874
:104ED000200008F8080000000000203F20202020CB
:104EE000300008F8F800F8F80800203F003F003FC5
:104EF000200008F830C00008F808203F20000718FC
:104F00003F00E01008080810E0000F1020202010DB
:104F10000F0008F808080808F000203F21010101EF
:104F20000000E01008080810E0000F182424385092
:104F30004F0008F8888888887000203F2000030C04
:104F4000302000708808080838000038202121220D
:104F50001C00180808F8080818000000203F20006E
:104F6000000008F808000008F808001F2020202092
:104F70001F000878880000C83808000007380E01B4
:104F80000000F80800F80008F800033C0700073CA0
:104F90000300081868808068180820302C03032C50
:104FA00030200838C800C83808000000203F200022
:104FB000000010080808C8380800203826212020E2
:104FC0001800000000FE020202000000007F4040C6
:104FD0004000000C30C00000000000000001063856
:104FE000C00000020202FE000000004040407F00BE
:104FF00000000000040202020400000000000000A3
:1050000000000000000000000000808080808080A0
:105010008080000202040000000000000000000088
:1050200000000000808080800000001924222222DD
:105030003F2008F8008080000000003F1120201170
:105040000E000000008080800000000E1120202053
:105050001100000000808088F800000E1120201050
:105060003F200000808080800000001F222222223A
:105070001300008080F0888888180020203F2020BE
:1050800000000000808080808000006B94949493E6
:10509000600008F8008080800000203F2100002090
:1050A0003F2000809898000000000020203F202032
:1050B0000000000000809898000000C08080807F81
:1050C000000008F8000080808000203F24022D307E
:1050D0002000000808F8000000000020203F2020E9
:1050E00000008080808080808000203F20003F2062
:1050F000003F8080008080800000203F2100002051
:105100003F200000808080800000001F20202020A1
:105110001F00808000808000000080FFA1202011FF
:105120000E000000008080808000000E112020A072
:10513000FF80808080008080800020203F21200030
:10514000010000008080808080000033242424241B
:105150001900008080E0808000000000001F2020F7
:1051600000008080000000808000001F20202010B0
:105170003F20808080000080808000010E30080683
:10518000010080800080008080800F300C030C3094
:105190000F0000808000808080000020312E0E31C2
:1051A0002000808080000080808080818E701806C2
:1051B000010000808080808080000021302C22212E
:1051C000300000000000807C020200000000003F70
:1051D00040400002027C800000000040403F000090
:1051E000000000000000FF00000000000000FF00C1
:1051F00000002424A4FE2322001008946724940CA9
:10520000000000000000000000000000000000009E
:10521000000000000000000000000000000000008E
:10522000000000000000000000000000000000007E
:10523000000000000000000000000000000000006E
:10524000000000000000000000000000000000005E
:10525000000000000000000000000000000000004E
:10526000000000000000000000000000000000003E
:10527000000000000000000000000000000000002E
:10528000000000000000000000000000000000001E
:10529000000000000000000000000000000000000E
:1052A00000000000000000000000000000000000FE
:1052B00000000000000000000000000000000000EE
:1052C00000000000000000000000000000000000DE
:1052D00000000000000000000000000000000000CE
:1052E00000000000000000000000000000000000BE
:1052F00000080601FF0106008989444A33120A06A4
:10530000000000000000000000000000000000009D
:10531000000000000000000000000000000000008D
:10532000000000000000000000000000000000007D
:10533000000000000000000000000000000000006D
:10534000000000000000000000000000000000005D
:10535000000000000000000000000000000000004D
:10536000000000000000000000000000000000003D
:10537000000000000000000000000000000000002D
:10538000000000000000000000000000000000001D
:10539000000000000000000000000000000000000D
:1053A00000000000000000000000000000000000FD
:1053B00000000000000000000000000000000000ED
:1053C00000000000000000000000000000000000DD
:1053D00000000000000000000000000000000000CD
:1053E00000000000000000000000000000000000BD
:1053F0004044C4444444401010FF101010F000001A
:10540000000000000000000000000000000000009C
:10541000000000000000000000000000000000008C
:10542000000000000000000000000000000000007C
:10543000000000000000000000000000000000006C
:10544000000000000000000000000000000000005C
:10545000000000000000000000000000000000004C
:10546000000000000000000000000000000000003C
:10547000000000000000000000000000000000002C
:10548000000000000000000000000000000000001C
:10549000000000000000000000000000000000000C
:1054A00000000000000000000000000000000000FC
:1054B00000000000000000000000000000000000EC
:1054C00000000000000000000000000000000000DC
:1054D00000000000000000000000000000000000CC
:1054E00000000000000000000000000000000010AC
:1054F0003C131014B840300E014080403F000000C3
:10550000000000000000000000000000000000009B
:10551000000000000000000000000000000000008B
:10552000000000000000000000000000000000007B
:10553000000000000000000000000000000000006B
:10554000000000000000000000000000000000005B
:10555000000000000000000000000000000000004B
:10556000000000000000000000000000000000003B
:10557000000000000000000000000000000000002B
:10558000000000000000000000000000000000001B
:10559000000000000000000000000000000000000B
:1055A00000000000000000000000000000000000FB
:1055B00000000000000000000000000000000000EB
:1055C00000000000000000000000000000000000DB
:1055D00000000000000000000000000000000000CB
:1055E00000000000000000000000000000000000BB
:1055F000F888888888FF88888888F800000000007C
:10560000000000000000000000000000000000009A
:10561000000000000000000000000000000000008A
:10562000000000000000000000000000000000007A
:10563000000000000000000000000000000000006A
:10564000000000000000000000000000000000005A
:10565000000000000000000000000000000000004A
:10566000000000000000000000000000000000003A
:10567000000000000000000000000000000000002A
:10568000000000000000000000000000000000001A
:10569000000000000000000000000000000000000A
:1056A00000000000000000000000000000000000FA
:1056B00000000000000000000000000000000000EA
:1056C00000000000000000000000000000000000DA
:1056D00000000000000000000000000000000000CA
:1056E0000000000000000000000000000000001F9B
:1056F000080808087F888888889F80F000000000DC
:105700000000000000000000000000000000000099
:105710000000000000000000000000000000000089
:105720000000000000000000000000000000000079
:105730000000000000000000000000000000000069
:105740000000000000000000000000000000000059
:105750000000000000000000000000000000000049
:105760000000000000000000000000000000000039
:105770000000000000000000000000000000000029
:105780000000000000000000000000000000000019
:105790000000000000000000000000000000000009
:1057A00000000000000000000000000000000000F9
:1057B00000000000000000000000000000000000E9
:1057C00000000000000000000000000000000000D9
:1057D00000000000000000000000000000000000C9
:1057E0000000000000000000000000001060028CBB
:1057F00000FE02F2525A565252F20200000000001D
:105800000000000000000000000000000000000098
:105810000000000000000000000000000000000088
:105820000000000000000000000000000000000078
:105830000000000000000000000000000000000068
:105840000000000000000000000000000000000058
:105850000000000000000000000000000000000048
:105860000000000000000000000000000000000038
:105870000000000000000000000000000000000028
:105880000000000000000000000000000000000018
:105890000000000000000000000000000000000008
:1058A00000000000000000000000000000000000F8
:1058B00000000000000000000000000000000000E8
:1058C00000000000000000000000000000000000D8
:1058D00000000000000000000000000000000000C8
:1058E000000000000000000000000004047E4130C1
:1058F0000F201349817F01091320000000000000E0
:105900000000000000000000000000000000000097
:105910000000000000000000000000000000000087
:105920000000000000000000000000000000000077
:105930000000000000000000000000000000000067
:105940000000000000000000000000000000000057
:105950000000000000000000000000000000000047
:105960000000000000000000000000000000000037
:105970000000000000000000000000000000000027
:105980000000000000000000000000000000000017
:105990000000000000000000000000000000000007
:1059A00000000000000000000000000000000000F7
:1059B00000000000000000000000000000000000E7
:1059C00000000000000000000000000000000000D7
:1059D00000000000000000000000000000000000C7
:1059E00000000000000000000000886423A2A6AAB6
:1059F000A2BAA4A3A2262AA262000000000000000E
:105A00000000000000000000000000000000000096
:105A10000000000000000000000000000000000086
:105A20000000000000000000000000000000000076
:105A30000000000000000000000000000000000066
:105A40000000000000000000000000000000000056
:105A50000000000000000000000000000000000046
:105A60000000000000000000000000000000000036
:105A70000000000000000000000000000000000026
:105A80000000000000000000000000000000000016
:105A90000000000000000000000000000000000006
:105AA00000000000000000000000000000000000F6
:105AB00000000000000000000000000000000000E6
:105AC00000000000000000000000000000000000D6
:105AD00000000000000000000000000000000000C6
